{"abi":[{"type":"constructor","inputs":[{"name":"initialOwner","type":"address","internalType":"address"}],"stateMutability":"nonpayable"},{"type":"receive","stateMutability":"payable"},{"type":"function","name":"calculateRewards","inputs":[{"name":"user","type":"address","internalType":"address"},{"name":"stakeId","type":"uint256","internalType":"uint256"}],"outputs":[{"name":"","type":"uint256","internalType":"uint256"}],"stateMutability":"view"},{"type":"function","name":"claimRewards","inputs":[{"name":"stakeId","type":"uint256","internalType":"uint256"}],"outputs":[],"stateMutability":"nonpayable"},{"type":"function","name":"createPool","inputs":[{"name":"name","type":"string","internalType":"string"},{"name":"lockPeriod","type":"uint256","internalType":"uint256"},{"name":"apy","type":"uint256","internalType":"uint256"},{"name":"maxCapacity","type":"uint256","internalType":"uint256"}],"outputs":[],"stateMutability":"nonpayable"},{"type":"function","name":"depositRewards","inputs":[],"outputs":[],"stateMutability":"payable"},{"type":"function","name":"emergencyWithdraw","inputs":[],"outputs":[],"stateMutability":"nonpayable"},{"type":"function","name":"getAllPools","inputs":[],"outputs":[{"name":"","type":"tuple[]","internalType":"struct Staking.Pool[]","components":[{"name":"id","type":"uint256","internalType":"uint256"},{"name":"name","type":"string","internalType":"string"},{"name":"lockPeriod","type":"uint256","internalType":"uint256"},{"name":"apy","type":"uint256","internalType":"uint256"},{"name":"totalStaked","type":"uint256","internalType":"uint256"},{"name":"maxCapacity","type":"uint256","internalType":"uint256"},{"name":"active","type":"bool","internalType":"bool"}]}],"stateMutability":"view"},{"type":"function","name":"getContractBalance","inputs":[],"outputs":[{"name":"","type":"uint256","internalType":"uint256"}],"stateMutability":"view"},{"type":"function","name":"getPool","inputs":[{"name":"poolId","type":"uint256","internalType":"uint256"}],"outputs":[{"name":"","type":"tuple","internalType":"struct Staking.Pool","components":[{"name":"id","type":"uint256","internalType":"uint256"},{"name":"name","type":"string","internalType":"string"},{"name":"lockPeriod","type":"uint256","internalType":"uint256"},{"name":"apy","type":"uint256","internalType":"uint256"},{"name":"totalStaked","type":"uint256","internalType":"uint256"},{"name":"maxCapacity","type":"uint256","internalType":"uint256"},{"name":"active","type":"bool","internalType":"bool"}]}],"stateMutability":"view"},{"type":"function","name":"getUserStakes","inputs":[{"name":"user","type":"address","internalType":"address"}],"outputs":[{"name":"","type":"tuple[]","internalType":"struct Staking.Stake[]","components":[{"name":"poolId","type":"uint256","internalType":"uint256"},{"name":"amount","type":"uint256","internalType":"uint256"},{"name":"startTime","type":"uint256","internalType":"uint256"},{"name":"lastClaimTime","type":"uint256","internalType":"uint256"},{"name":"active","type":"bool","internalType":"bool"}]}],"stateMutability":"view"},{"type":"function","name":"minStakeAmount","inputs":[],"outputs":[{"name":"","type":"uint256","internalType":"uint256"}],"stateMutability":"view"},{"type":"function","name":"owner","inputs":[],"outputs":[{"name":"","type":"address","internalType":"address"}],"stateMutability":"view"},{"type":"function","name":"pause","inputs":[],"outputs":[],"stateMutability":"nonpayable"},{"type":"function","name":"paused","inputs":[],"outputs":[{"name":"","type":"bool","internalType":"bool"}],"stateMutability":"view"},{"type":"function","name":"poolCount","inputs":[],"outputs":[{"name":"","type":"uint256","internalType":"uint256"}],"stateMutability":"view"},{"type":"function","name":"pools","inputs":[{"name":"","type":"uint256","internalType":"uint256"}],"outputs":[{"name":"id","type":"uint256","internalType":"uint256"},{"name":"name","type":"string","internalType":"string"},{"name":"lockPeriod","type":"uint256","internalType":"uint256"},{"name":"apy","type":"uint256","internalType":"uint256"},{"name":"totalStaked","type":"uint256","internalType":"uint256"},{"name":"maxCapacity","type":"uint256","internalType":"uint256"},{"name":"active","type":"bool","internalType":"bool"}],"stateMutability":"view"},{"type":"function","name":"renounceOwnership","inputs":[],"outputs":[],"stateMutability":"nonpayable"},{"type":"function","name":"rewardsPool","inputs":[],"outputs":[{"name":"","type":"uint256","internalType":"uint256"}],"stateMutability":"view"},{"type":"function","name":"setMinStakeAmount","inputs":[{"name":"amount","type":"uint256","internalType":"uint256"}],"outputs":[],"stateMutability":"nonpayable"},{"type":"function","name":"stake","inputs":[{"name":"poolId","type":"uint256","internalType":"uint256"}],"outputs":[],"stateMutability":"payable"},{"type":"function","name":"stakes","inputs":[{"name":"","type":"address","internalType":"address"},{"name":"","type":"uint256","internalType":"uint256"}],"outputs":[{"name":"poolId","type":"uint256","internalType":"uint256"},{"name":"amount","type":"uint256","internalType":"uint256"},{"name":"startTime","type":"uint256","internalType":"uint256"},{"name":"lastClaimTime","type":"uint256","internalType":"uint256"},{"name":"active","type":"bool","internalType":"bool"}],"stateMutability":"view"},{"type":"function","name":"totalStaked","inputs":[],"outputs":[{"name":"","type":"uint256","internalType":"uint256"}],"stateMutability":"view"},{"type":"function","name":"transferOwnership","inputs":[{"name":"newOwner","type":"address","internalType":"address"}],"outputs":[],"stateMutability":"nonpayable"},{"type":"function","name":"unpause","inputs":[],"outputs":[],"stateMutability":"nonpayable"},{"type":"function","name":"unstake","inputs":[{"name":"stakeId","type":"uint256","internalType":"uint256"}],"outputs":[],"stateMutability":"nonpayable"},{"type":"function","name":"updatePool","inputs":[{"name":"poolId","type":"uint256","internalType":"uint256"},{"name":"apy","type":"uint256","internalType":"uint256"},{"name":"maxCapacity","type":"uint256","internalType":"uint256"},{"name":"active","type":"bool","internalType":"bool"}],"outputs":[],"stateMutability":"nonpayable"},{"type":"function","name":"userStakeCount","inputs":[{"name":"","type":"address","internalType":"address"}],"outputs":[{"name":"","type":"uint256","internalType":"uint256"}],"stateMutability":"view"},{"type":"event","name":"EmergencyWithdraw","inputs":[{"name":"user","type":"address","indexed":true,"internalType":"address"},{"name":"amount","type":"uint256","indexed":false,"internalType":"uint256"}],"anonymous":false},{"type":"event","name":"OwnershipTransferred","inputs":[{"name":"previousOwner","type":"address","indexed":true,"internalType":"address"},{"name":"newOwner","type":"address","indexed":true,"internalType":"address"}],"anonymous":false},{"type":"event","name":"Paused","inputs":[{"name":"account","type":"address","indexed":false,"internalType":"address"}],"anonymous":false},{"type":"event","name":"PoolCreated","inputs":[{"name":"poolId","type":"uint256","indexed":true,"internalType":"uint256"},{"name":"name","type":"string","indexed":false,"internalType":"string"},{"name":"lockPeriod","type":"uint256","indexed":false,"internalType":"uint256"},{"name":"apy","type":"uint256","indexed":false,"internalType":"uint256"}],"anonymous":false},{"type":"event","name":"PoolUpdated","inputs":[{"name":"poolId","type":"uint256","indexed":true,"internalType":"uint256"},{"name":"apy","type":"uint256","indexed":false,"internalType":"uint256"},{"name":"maxCapacity","type":"uint256","indexed":false,"internalType":"uint256"},{"name":"active","type":"bool","indexed":false,"internalType":"bool"}],"anonymous":false},{"type":"event","name":"RewardsClaimed","inputs":[{"name":"user","type":"address","indexed":true,"internalType":"address"},{"name":"poolId","type":"uint256","indexed":true,"internalType":"uint256"},{"name":"stakeId","type":"uint256","indexed":false,"internalType":"uint256"},{"name":"amount","type":"uint256","indexed":false,"internalType":"uint256"}],"anonymous":false},{"type":"event","name":"RewardsDeposited","inputs":[{"name":"amount","type":"uint256","indexed":false,"internalType":"uint256"}],"anonymous":false},{"type":"event","name":"Staked","inputs":[{"name":"user","type":"address","indexed":true,"internalType":"address"},{"name":"poolId","type":"uint256","indexed":true,"internalType":"uint256"},{"name":"stakeId","type":"uint256","indexed":false,"internalType":"uint256"},{"name":"amount","type":"uint256","indexed":false,"internalType":"uint256"}],"anonymous":false},{"type":"event","name":"Unpaused","inputs":[{"name":"account","type":"address","indexed":false,"internalType":"address"}],"anonymous":false},{"type":"event","name":"Unstaked","inputs":[{"name":"user","type":"address","indexed":true,"internalType":"address"},{"name":"poolId","type":"uint256","indexed":true,"internalType":"uint256"},{"name":"stakeId","type":"uint256","indexed":false,"internalType":"uint256"},{"name":"amount","type":"uint256","indexed":false,"internalType":"uint256"}],"anonymous":false},{"type":"error","name":"EnforcedPause","inputs":[]},{"type":"error","name":"ExpectedPause","inputs":[]},{"type":"error","name":"OwnableInvalidOwner","inputs":[{"name":"owner","type":"address","internalType":"address"}]},{"type":"error","name":"OwnableUnauthorizedAccount","inputs":[{"name":"account","type":"address","internalType":"address"}]},{"type":"error","name":"ReentrancyGuardReentrantCall","inputs":[]}],"bytecode":{"object":"0x6080604052662386f26fc1000060085534801561001a575f5ffd5b5060405161229c38038061229c833981016040819052610039916102ad565b60015f55806001600160a01b03811661006b57604051631e4fbdf760e01b81525f600482015260240160405180910390fd5b6100748161015a565b50604080518082019091526008815267466c657869626c6560c01b60208201526100ab905f6101f4683635c9adc5dea000006101ab565b6040805180820190915260078152663330204461797360c81b60208201526100e39062278d00610320681b1ae4d6e2ef5000006101ab565b6040805180820190915260078152663930204461797360c81b602082015261011b906276a7006104b0681043561a88293000006101ab565b604080518082019091526008815267313830204461797360c01b60208201526101549062ed4e006105dc680ad78ebc5ac62000006101ab565b50610493565b600180546001600160a01b038381166001600160a01b0319831681179093556040519116919082907f8be0079c531659141344cd1fd0a4f28419497f9722a3daafe3b4186f6b6457e0905f90a35050565b60038054905f6101ba836102da565b90915550506040805160e0810182526003548082526020808301888152838501889052606084018790525f6080850181905260a08501879052600160c0860181905293815260029092529390208251815592519192919082019061021e9082610396565b5060408201518160020155606082015181600301556080820151816004015560a0820151816005015560c0820151816006015f6101000a81548160ff0219169083151502179055509050506003547fd6a5afaab19aa08059d2a773896ae3716587b8cb7dd9ffa3989de36e7ce8d6a385858560405161029f93929190610450565b60405180910390a250505050565b5f602082840312156102bd575f5ffd5b81516001600160a01b03811681146102d3575f5ffd5b9392505050565b5f600182016102f757634e487b7160e01b5f52601160045260245ffd5b5060010190565b634e487b7160e01b5f52604160045260245ffd5b600181811c9082168061032657607f821691505b60208210810361034457634e487b7160e01b5f52602260045260245ffd5b50919050565b601f82111561039157805f5260205f20601f840160051c8101602085101561036f5750805b601f840160051c820191505b8181101561038e575f815560010161037b565b50505b505050565b81516001600160401b038111156103af576103af6102fe565b6103c3816103bd8454610312565b8461034a565b6020601f8211600181146103f5575f83156103de5750848201515b5f19600385901b1c1916600184901b17845561038e565b5f84815260208120601f198516915b828110156104245787850151825560209485019460019092019101610404565b508482101561044157868401515f19600387901b60f8161c191681555b50505050600190811b01905550565b606081525f84518060608401528060208701608085015e5f608082850101526080601f19601f830116840101915050836020830152826040830152949350505050565b611dfc806104a05f395ff3fe60806040526004361061017e575f3560e01c80638456cb59116100cd578063beb8314c11610087578063eb4af04511610062578063eb4af045146104cd578063f1887684146104ec578063f2fde38b14610501578063f525cb6814610520575f5ffd5b8063beb8314c14610479578063d88ff1f414610498578063db2e21bc146104b9575f5ffd5b80638456cb59146103af5780638da5cb5b146103c3578063a208298b146103ea578063a694fc3a14610409578063ac4afa381461041c578063b02e64a91461044e575f5ffd5b80633f4ba83a116101385780636f9fb98a116101135780636f9fb98a14610348578063715018a61461035a578063817b1cd21461036e578063842e298114610383575f5ffd5b80633f4ba83a1461028d578063584b62a1146102a15780635c975abb1461031f575f5ffd5b80630359fea9146101d2578063068bcd8d146101fa5780630962ef7914610226578063152111f7146102475780632e17de781461024f578063376582f71461026e575f5ffd5b366101ce573460075f8282546101949190611819565b90915550506040513481527f4e9221f2cca6ca0397acc6004ea0b716798254f5abcf53924fab34f0373e5d4e9060200160405180910390a1005b5f5ffd5b3480156101dd575f5ffd5b506101e760075481565b6040519081526020015b60405180910390f35b348015610205575f5ffd5b5061021961021436600461182c565b610535565b6040516101f191906118cf565b348015610231575f5ffd5b5061024561024036600461182c565b61069a565b005b6102456106e5565b34801561025a575f5ffd5b5061024561026936600461182c565b610780565b348015610279575f5ffd5b506102456102883660046118e8565b61098a565b348015610298575f5ffd5b50610245610a37565b3480156102ac575f5ffd5b506102f56102bb366004611945565b600460208181525f938452604080852090915291835291208054600182015460028301546003840154939094015491939092909160ff1685565b6040805195865260208601949094529284019190915260608301521515608082015260a0016101f1565b34801561032a575f5ffd5b50600154600160a01b900460ff1660405190151581526020016101f1565b348015610353575f5ffd5b50476101e7565b348015610365575f5ffd5b50610245610a49565b348015610379575f5ffd5b506101e760065481565b34801561038e575f5ffd5b506103a261039d36600461196d565b610a5a565b6040516101f19190611986565b3480156103ba575f5ffd5b50610245610b88565b3480156103ce575f5ffd5b506001546040516001600160a01b0390911681526020016101f1565b3480156103f5575f5ffd5b50610245610404366004611a0e565b610b98565b61024561041736600461182c565b610bb2565b348015610427575f5ffd5b5061043b61043636600461182c565b610df0565b6040516101f19796959493929190611ad4565b348015610459575f5ffd5b506101e761046836600461196d565b60056020525f908152604090205481565b348015610484575f5ffd5b506101e7610493366004611945565b610eb4565b3480156104a3575f5ffd5b506104ac61109d565b6040516101f19190611b18565b3480156104c4575f5ffd5b50610245611264565b3480156104d8575f5ffd5b506102456104e736600461182c565b611347565b3480156104f7575f5ffd5b506101e760085481565b34801561050c575f5ffd5b5061024561051b36600461196d565b611354565b34801561052b575f5ffd5b506101e760035481565b6105716040518060e001604052805f8152602001606081526020015f81526020015f81526020015f81526020015f81526020015f151581525090565b5f8211801561058257506003548211155b6105a75760405162461bcd60e51b815260040161059e90611b7b565b60405180910390fd5b60025f8381526020019081526020015f206040518060e00160405290815f82015481526020016001820180546105dc90611ba1565b80601f016020809104026020016040519081016040528092919081815260200182805461060890611ba1565b80156106535780601f1061062a57610100808354040283529160200191610653565b820191905f5260205f20905b81548152906001019060200180831161063657829003601f168201915b50505091835250506002820154602082015260038201546040820152600482015460608201526005820154608082015260069091015460ff16151560a09091015292915050565b6106a261138e565b335f9081526005602052604090205481106106cf5760405162461bcd60e51b815260040161059e90611bd3565b6106d933826113b6565b6106e260015f55565b50565b5f34116107345760405162461bcd60e51b815260206004820152601d60248201527f416d6f756e74206d7573742062652067726561746572207468616e2030000000604482015260640161059e565b3460075f8282546107459190611819565b90915550506040513481527f4e9221f2cca6ca0397acc6004ea0b716798254f5abcf53924fab34f0373e5d4e906020015b60405180910390a1565b61078861138e565b335f9081526005602052604090205481106107b55760405162461bcd60e51b815260040161059e90611bd3565b335f9081526004602081815260408084208585529091529091209081015460ff166108225760405162461bcd60e51b815260206004820152601760248201527f5374616b6520616c72656164792077697468647261776e000000000000000000604482015260640161059e565b80545f9081526002602081905260409091208082015491830154909161084791611819565b42101561088e5760405162461bcd60e51b8152602060048201526015602482015274131bd8dac81c195c9a5bd9081b9bdd08195b991959605a1b604482015260640161059e565b61089833846113b6565b60018201546004808401805460ff19169055820180548291905f906108be908490611bfd565b925050819055508060065f8282546108d69190611bfd565b90915550506040515f90339083908381818185875af1925050503d805f811461091a576040519150601f19603f3d011682016040523d82523d5f602084013e61091f565b606091505b50509050806109405760405162461bcd60e51b815260040161059e90611c10565b8354604080518781526020810185905233917f204fccf0d92ed8d48f204adb39b2e81e92bad0dedb93f5716ca9478cfb57de00910160405180910390a3505050506106e260015f55565b61099261159d565b5f841180156109a357506003548411155b6109bf5760405162461bcd60e51b815260040161059e90611b7b565b5f84815260026020908152604091829020600381018690556005810185905560068101805485151560ff199091168117909155835187815292830186905282840152915186917f7600d4ded6fd949396310db0bf79a7d304b26859d4f81ba1066858108d7e247a919081900360600190a25050505050565b610a3f61159d565b610a476115ca565b565b610a5161159d565b610a475f61161a565b6001600160a01b0381165f908152600560205260408120546060918167ffffffffffffffff811115610a8e57610a8e6119fa565b604051908082528060200260200182016040528015610aee57816020015b610adb6040518060a001604052805f81526020015f81526020015f81526020015f81526020015f151581525090565b815260200190600190039081610aac5790505b5090505f5b82811015610b80576001600160a01b0385165f908152600460208181526040808420858552825292839020835160a081018552815481526001820154928101929092526002810154938201939093526003830154606082015291015460ff16151560808201528251839083908110610b6d57610b6d611c39565b6020908102919091010152600101610af3565b509392505050565b610b9061159d565b610a4761166b565b610ba061159d565b610bac848484846116ae565b50505050565b610bba61138e565b610bc26117b0565b5f81118015610bd357506003548111155b610bef5760405162461bcd60e51b815260040161059e90611b7b565b600854341015610c385760405162461bcd60e51b8152602060048201526014602482015273416d6f756e742062656c6f77206d696e696d756d60601b604482015260640161059e565b5f818152600260205260409020600681015460ff16610c8b5760405162461bcd60e51b815260206004820152600f60248201526e506f6f6c206e6f742061637469766560881b604482015260640161059e565b8060050154348260040154610ca09190611819565b1115610ce75760405162461bcd60e51b8152602060048201526016602482015275141bdbdb0818d85c1858da5d1e48195e18d95959195960521b604482015260640161059e565b335f8181526005602081815260408084208054825160a0810184528981523481860190815242828601818152606084019182526001608085018181528c8c526004808b52898d20888e528b52988c2095518655935190850155516002840155516003830155519301805460ff191693151593909317909255948452919052825490929091610d7483611c4d565b919050555034826004015f828254610d8c9190611819565b925050819055503460065f828254610da49190611819565b909155505060408051828152346020820152849133917fb4caaf29adda3eefee3ad552a8e85058589bf834c7466cae4ee58787f70589ed910160405180910390a350506106e260015f55565b60026020525f908152604090208054600182018054919291610e1190611ba1565b80601f0160208091040260200160405190810160405280929190818152602001828054610e3d90611ba1565b8015610e885780601f10610e5f57610100808354040283529160200191610e88565b820191905f5260205f20905b815481529060010190602001808311610e6b57829003601f168201915b505050600284015460038501546004860154600587015460069097015495969295919450925060ff1687565b6001600160a01b0382165f908152600560205260408120548210610eea5760405162461bcd60e51b815260040161059e90611bd3565b6001600160a01b0383165f908152600460208181526040808420868552825292839020835160a081018552815481526001820154928101929092526002810154938201939093526003830154606082015291015460ff16151560808201819052610f57575f915050611097565b5f60025f835f015181526020019081526020015f206040518060e00160405290815f8201548152602001600182018054610f9090611ba1565b80601f0160208091040260200160405190810160405280929190818152602001828054610fbc90611ba1565b80156110075780601f10610fde57610100808354040283529160200191611007565b820191905f5260205f20905b815481529060010190602001808311610fea57829003601f168201915b5050509183525050600282015460208201526003820154604082015260048201546060808301919091526005830154608083015260069092015460ff16151560a0909101528301519091505f9061105e9042611bfd565b90505f64496cebb800828460600151866020015161107c9190611c65565b6110869190611c65565b6110909190611c7c565b9450505050505b92915050565b60605f60035467ffffffffffffffff8111156110bb576110bb6119fa565b60405190808252806020026020018201604052801561112857816020015b6111156040518060e001604052805f8152602001606081526020015f81526020015f81526020015f81526020015f81526020015f151581525090565b8152602001906001900390816110d95790505b50905060015b600354811161125e5760025f8281526020019081526020015f206040518060e00160405290815f820154815260200160018201805461116c90611ba1565b80601f016020809104026020016040519081016040528092919081815260200182805461119890611ba1565b80156111e35780601f106111ba576101008083540402835291602001916111e3565b820191905f5260205f20905b8154815290600101906020018083116111c657829003601f168201915b50505091835250506002820154602082015260038201546040820152600482015460608201526005820154608082015260069091015460ff16151560a09091015282611230600184611bfd565b8151811061124057611240611c39565b6020026020010181905250808061125690611c4d565b91505061112e565b50919050565b61126c61159d565b6112746117db565b475f6112886001546001600160a01b031690565b6001600160a01b0316826040515f6040518083038185875af1925050503d805f81146112cf576040519150601f19603f3d011682016040523d82523d5f602084013e6112d4565b606091505b50509050806112f55760405162461bcd60e51b815260040161059e90611c10565b6001546001600160a01b03166001600160a01b03167f5fafa99d0643513820be26656b45130b01e1c03062e1266bf36f88cbd3bd96958360405161133b91815260200190565b60405180910390a25050565b61134f61159d565b600855565b61135c61159d565b6001600160a01b03811661138557604051631e4fbdf760e01b81525f600482015260240161059e565b6106e28161161a565b60025f54036113b057604051633ee5aeb560e01b815260040160405180910390fd5b60025f55565b6001600160a01b0382165f9081526004602081815260408084208585529091529091209081015460ff1661141f5760405162461bcd60e51b815260206004820152601060248201526f5374616b65206e6f742061637469766560801b604482015260640161059e565b5f61142a8484610eb4565b90505f81116114715760405162461bcd60e51b81526020600482015260136024820152724e6f207265776172647320746f20636c61696d60681b604482015260640161059e565b8060075410156114c35760405162461bcd60e51b815260206004820152601960248201527f496e73756666696369656e74207265776172647320706f6f6c00000000000000604482015260640161059e565b4282600301819055508060075f8282546114dd9190611bfd565b90915550506040515f906001600160a01b0386169083908381818185875af1925050503d805f811461152a576040519150601f19603f3d011682016040523d82523d5f602084013e61152f565b606091505b50509050806115505760405162461bcd60e51b815260040161059e90611c10565b825460408051868152602081018590526001600160a01b038816917f56253d287efacdb2c4cd76dd03624a4821c1ce721d1152e8f5f5718f6087c9bf910160405180910390a35050505050565b6001546001600160a01b03163314610a475760405163118cdaa760e01b815233600482015260240161059e565b6115d26117db565b6001805460ff60a01b191690557f5db9ee0a495bf2e6ff9c91a7834c1ba4fdd244a5e8aa4e537bd38aeae4b073aa335b6040516001600160a01b039091168152602001610776565b600180546001600160a01b038381166001600160a01b0319831681179093556040519116919082907f8be0079c531659141344cd1fd0a4f28419497f9722a3daafe3b4186f6b6457e0905f90a35050565b6116736117b0565b6001805460ff60a01b1916600160a01b1790557f62e78cea01bee320cd4e420270b5ea74000d11b0c9f74754ebdbfc544b05a2586116023390565b60038054905f6116bd83611c4d565b90915550506040805160e0810182526003548082526020808301888152838501889052606084018790525f6080850181905260a08501879052600160c086018190529381526002909252939020825181559251919291908201906117219082611ce7565b5060408201518160020155606082015181600301556080820151816004015560a0820151816005015560c0820151816006015f6101000a81548160ff0219169083151502179055509050506003547fd6a5afaab19aa08059d2a773896ae3716587b8cb7dd9ffa3989de36e7ce8d6a38585856040516117a293929190611da2565b60405180910390a250505050565b600154600160a01b900460ff1615610a475760405163d93c066560e01b815260040160405180910390fd5b600154600160a01b900460ff16610a4757604051638dfc202b60e01b815260040160405180910390fd5b634e487b7160e01b5f52601160045260245ffd5b8082018082111561109757611097611805565b5f6020828403121561183c575f5ffd5b5035919050565b5f81518084528060208401602086015e5f602082860101526020601f19601f83011685010191505092915050565b805182525f602082015160e0602085015261188f60e0850182611843565b905060408301516040850152606083015160608501526080830151608085015260a083015160a085015260c0830151151560c08501528091505092915050565b602081525f6118e16020830184611871565b9392505050565b5f5f5f5f608085870312156118fb575f5ffd5b8435935060208501359250604085013591506060850135801515811461191f575f5ffd5b939692955090935050565b80356001600160a01b0381168114611940575f5ffd5b919050565b5f5f60408385031215611956575f5ffd5b61195f8361192a565b946020939093013593505050565b5f6020828403121561197d575f5ffd5b6118e18261192a565b602080825282518282018190525f918401906040840190835b818110156119ef578351805184526020810151602085015260408101516040850152606081015160608501526080810151151560808501525060a08301925060208401935060018101905061199f565b509095945050505050565b634e487b7160e01b5f52604160045260245ffd5b5f5f5f5f60808587031215611a21575f5ffd5b843567ffffffffffffffff811115611a37575f5ffd5b8501601f81018713611a47575f5ffd5b803567ffffffffffffffff811115611a6157611a616119fa565b604051601f8201601f19908116603f0116810167ffffffffffffffff81118282101715611a9057611a906119fa565b604052818152828201602001891015611aa7575f5ffd5b816020840160208301375f6020928201830152989087013597506040870135966060013595509350505050565b87815260e060208201525f611aec60e0830189611843565b6040830197909752506060810194909452608084019290925260a0830152151560c09091015292915050565b5f602082016020835280845180835260408501915060408160051b8601019250602086015f5b82811015611b6f57603f19878603018452611b5a858351611871565b94506020938401939190910190600101611b3e565b50929695505050505050565b6020808252600c908201526b125b9d985b1a59081c1bdbdb60a21b604082015260600190565b600181811c90821680611bb557607f821691505b60208210810361125e57634e487b7160e01b5f52602260045260245ffd5b60208082526010908201526f125b9d985b1a59081cdd185ad948125160821b604082015260600190565b8181038181111561109757611097611805565b6020808252600f908201526e151c985b9cd9995c8819985a5b1959608a1b604082015260600190565b634e487b7160e01b5f52603260045260245ffd5b5f60018201611c5e57611c5e611805565b5060010190565b808202811582820484141761109757611097611805565b5f82611c9657634e487b7160e01b5f52601260045260245ffd5b500490565b601f821115611ce257805f5260205f20601f840160051c81016020851015611cc05750805b601f840160051c820191505b81811015611cdf575f8155600101611ccc565b50505b505050565b815167ffffffffffffffff811115611d0157611d016119fa565b611d1581611d0f8454611ba1565b84611c9b565b6020601f821160018114611d47575f8315611d305750848201515b5f19600385901b1c1916600184901b178455611cdf565b5f84815260208120601f198516915b82811015611d765787850151825560209485019460019092019101611d56565b5084821015611d9357868401515f19600387901b60f8161c191681555b50505050600190811b01905550565b606081525f611db46060830186611843565b6020830194909452506040015291905056fea26469706673582212202e1c97058c3e50d463ba79d4823a6530b8a66e1bf6ea84b4c9068f312fe092a664736f6c634300081e0033","linkReferences":{}},"methodIdentifiers":{"calculateRewards(address,uint256)":"beb8314c","claimRewards(uint256)":"0962ef79","createPool(string,uint256,uint256,uint256)":"a208298b","depositRewards()":"152111f7","emergencyWithdraw()":"db2e21bc","getAllPools()":"d88ff1f4","getContractBalance()":"6f9fb98a","getPool(uint256)":"068bcd8d","getUserStakes(address)":"842e2981","minStakeAmount()":"f1887684","owner()":"8da5cb5b","pause()":"8456cb59","paused()":"5c975abb","poolCount()":"f525cb68","pools(uint256)":"ac4afa38","renounceOwnership()":"715018a6","rewardsPool()":"0359fea9","setMinStakeAmount(uint256)":"eb4af045","stake(uint256)":"a694fc3a","stakes(address,uint256)":"584b62a1","totalStaked()":"817b1cd2","transferOwnership(address)":"f2fde38b","unpause()":"3f4ba83a","unstake(uint256)":"2e17de78","updatePool(uint256,uint256,uint256,bool)":"376582f7","userStakeCount(address)":"b02e64a9"},"id":3}