{"abi":[{"type":"constructor","inputs":[{"name":"_baseURI","type":"string","internalType":"string"}],"stateMutability":"nonpayable"},{"type":"function","name":"addAuthorizedMinter","inputs":[{"name":"minter","type":"address","internalType":"address"}],"outputs":[],"stateMutability":"nonpayable"},{"type":"function","name":"authorizedMinters","inputs":[{"name":"","type":"address","internalType":"address"}],"outputs":[{"name":"","type":"bool","internalType":"bool"}],"stateMutability":"view"},{"type":"function","name":"balanceOf","inputs":[{"name":"account","type":"address","internalType":"address"},{"name":"id","type":"uint256","internalType":"uint256"}],"outputs":[{"name":"","type":"uint256","internalType":"uint256"}],"stateMutability":"view"},{"type":"function","name":"balanceOfBatch","inputs":[{"name":"accounts","type":"address[]","internalType":"address[]"},{"name":"ids","type":"uint256[]","internalType":"uint256[]"}],"outputs":[{"name":"","type":"uint256[]","internalType":"uint256[]"}],"stateMutability":"view"},{"type":"function","name":"baseURI","inputs":[],"outputs":[{"name":"","type":"string","internalType":"string"}],"stateMutability":"view"},{"type":"function","name":"getProperty","inputs":[{"name":"propertyId","type":"uint256","internalType":"uint256"}],"outputs":[{"name":"title","type":"string","internalType":"string"},{"name":"location","type":"string","internalType":"string"},{"name":"totalTokens","type":"uint256","internalType":"uint256"},{"name":"availableTokens","type":"uint256","internalType":"uint256"},{"name":"pricePerToken","type":"uint256","internalType":"uint256"},{"name":"propertyOwner","type":"address","internalType":"address"},{"name":"isActive","type":"bool","internalType":"bool"}],"stateMutability":"view"},{"type":"function","name":"isApprovedForAll","inputs":[{"name":"account","type":"address","internalType":"address"},{"name":"operator","type":"address","internalType":"address"}],"outputs":[{"name":"","type":"bool","internalType":"bool"}],"stateMutability":"view"},{"type":"function","name":"nextPropertyId","inputs":[],"outputs":[{"name":"","type":"uint256","internalType":"uint256"}],"stateMutability":"view"},{"type":"function","name":"owner","inputs":[],"outputs":[{"name":"","type":"address","internalType":"address"}],"stateMutability":"view"},{"type":"function","name":"pause","inputs":[],"outputs":[],"stateMutability":"nonpayable"},{"type":"function","name":"paused","inputs":[],"outputs":[{"name":"","type":"bool","internalType":"bool"}],"stateMutability":"view"},{"type":"function","name":"properties","inputs":[{"name":"","type":"uint256","internalType":"uint256"}],"outputs":[{"name":"title","type":"string","internalType":"string"},{"name":"location","type":"string","internalType":"string"},{"name":"totalTokens","type":"uint256","internalType":"uint256"},{"name":"availableTokens","type":"uint256","internalType":"uint256"},{"name":"pricePerToken","type":"uint256","internalType":"uint256"},{"name":"owner","type":"address","internalType":"address"},{"name":"isActive","type":"bool","internalType":"bool"},{"name":"metadataURI","type":"string","internalType":"string"}],"stateMutability":"view"},{"type":"function","name":"purchaseTokens","inputs":[{"name":"propertyId","type":"uint256","internalType":"uint256"},{"name":"amount","type":"uint256","internalType":"uint256"}],"outputs":[],"stateMutability":"payable"},{"type":"function","name":"removeAuthorizedMinter","inputs":[{"name":"minter","type":"address","internalType":"address"}],"outputs":[],"stateMutability":"nonpayable"},{"type":"function","name":"renounceOwnership","inputs":[],"outputs":[],"stateMutability":"nonpayable"},{"type":"function","name":"safeBatchTransferFrom","inputs":[{"name":"from","type":"address","internalType":"address"},{"name":"to","type":"address","internalType":"address"},{"name":"ids","type":"uint256[]","internalType":"uint256[]"},{"name":"values","type":"uint256[]","internalType":"uint256[]"},{"name":"data","type":"bytes","internalType":"bytes"}],"outputs":[],"stateMutability":"nonpayable"},{"type":"function","name":"safeTransferFrom","inputs":[{"name":"from","type":"address","internalType":"address"},{"name":"to","type":"address","internalType":"address"},{"name":"id","type":"uint256","internalType":"uint256"},{"name":"value","type":"uint256","internalType":"uint256"},{"name":"data","type":"bytes","internalType":"bytes"}],"outputs":[],"stateMutability":"nonpayable"},{"type":"function","name":"setApprovalForAll","inputs":[{"name":"operator","type":"address","internalType":"address"},{"name":"approved","type":"bool","internalType":"bool"}],"outputs":[],"stateMutability":"nonpayable"},{"type":"function","name":"setBaseURI","inputs":[{"name":"_baseURI","type":"string","internalType":"string"}],"outputs":[],"stateMutability":"nonpayable"},{"type":"function","name":"supportsInterface","inputs":[{"name":"interfaceId","type":"bytes4","internalType":"bytes4"}],"outputs":[{"name":"","type":"bool","internalType":"bool"}],"stateMutability":"view"},{"type":"function","name":"tokenizeProperty","inputs":[{"name":"title","type":"string","internalType":"string"},{"name":"location","type":"string","internalType":"string"},{"name":"totalTokens","type":"uint256","internalType":"uint256"},{"name":"pricePerToken","type":"uint256","internalType":"uint256"},{"name":"metadataURI","type":"string","internalType":"string"}],"outputs":[{"name":"","type":"uint256","internalType":"uint256"}],"stateMutability":"nonpayable"},{"type":"function","name":"transferOwnership","inputs":[{"name":"newOwner","type":"address","internalType":"address"}],"outputs":[],"stateMutability":"nonpayable"},{"type":"function","name":"unpause","inputs":[],"outputs":[],"stateMutability":"nonpayable"},{"type":"function","name":"updatePropertyStatus","inputs":[{"name":"propertyId","type":"uint256","internalType":"uint256"},{"name":"isActive","type":"bool","internalType":"bool"}],"outputs":[],"stateMutability":"nonpayable"},{"type":"function","name":"uri","inputs":[{"name":"tokenId","type":"uint256","internalType":"uint256"}],"outputs":[{"name":"","type":"string","internalType":"string"}],"stateMutability":"view"},{"type":"event","name":"ApprovalForAll","inputs":[{"name":"account","type":"address","indexed":true,"internalType":"address"},{"name":"operator","type":"address","indexed":true,"internalType":"address"},{"name":"approved","type":"bool","indexed":false,"internalType":"bool"}],"anonymous":false},{"type":"event","name":"OwnershipTransferred","inputs":[{"name":"previousOwner","type":"address","indexed":true,"internalType":"address"},{"name":"newOwner","type":"address","indexed":true,"internalType":"address"}],"anonymous":false},{"type":"event","name":"Paused","inputs":[{"name":"account","type":"address","indexed":false,"internalType":"address"}],"anonymous":false},{"type":"event","name":"PropertyTokenized","inputs":[{"name":"propertyId","type":"uint256","indexed":true,"internalType":"uint256"},{"name":"owner","type":"address","indexed":true,"internalType":"address"},{"name":"totalTokens","type":"uint256","indexed":false,"internalType":"uint256"},{"name":"pricePerToken","type":"uint256","indexed":false,"internalType":"uint256"}],"anonymous":false},{"type":"event","name":"PropertyUpdated","inputs":[{"name":"propertyId","type":"uint256","indexed":true,"internalType":"uint256"}],"anonymous":false},{"type":"event","name":"TokensPurchased","inputs":[{"name":"propertyId","type":"uint256","indexed":true,"internalType":"uint256"},{"name":"buyer","type":"address","indexed":true,"internalType":"address"},{"name":"amount","type":"uint256","indexed":false,"internalType":"uint256"},{"name":"totalCost","type":"uint256","indexed":false,"internalType":"uint256"}],"anonymous":false},{"type":"event","name":"TransferBatch","inputs":[{"name":"operator","type":"address","indexed":true,"internalType":"address"},{"name":"from","type":"address","indexed":true,"internalType":"address"},{"name":"to","type":"address","indexed":true,"internalType":"address"},{"name":"ids","type":"uint256[]","indexed":false,"internalType":"uint256[]"},{"name":"values","type":"uint256[]","indexed":false,"internalType":"uint256[]"}],"anonymous":false},{"type":"event","name":"TransferSingle","inputs":[{"name":"operator","type":"address","indexed":true,"internalType":"address"},{"name":"from","type":"address","indexed":true,"internalType":"address"},{"name":"to","type":"address","indexed":true,"internalType":"address"},{"name":"id","type":"uint256","indexed":false,"internalType":"uint256"},{"name":"value","type":"uint256","indexed":false,"internalType":"uint256"}],"anonymous":false},{"type":"event","name":"URI","inputs":[{"name":"value","type":"string","indexed":false,"internalType":"string"},{"name":"id","type":"uint256","indexed":true,"internalType":"uint256"}],"anonymous":false},{"type":"event","name":"Unpaused","inputs":[{"name":"account","type":"address","indexed":false,"internalType":"address"}],"anonymous":false},{"type":"error","name":"ERC1155InsufficientBalance","inputs":[{"name":"sender","type":"address","internalType":"address"},{"name":"balance","type":"uint256","internalType":"uint256"},{"name":"needed","type":"uint256","internalType":"uint256"},{"name":"tokenId","type":"uint256","internalType":"uint256"}]},{"type":"error","name":"ERC1155InvalidApprover","inputs":[{"name":"approver","type":"address","internalType":"address"}]},{"type":"error","name":"ERC1155InvalidArrayLength","inputs":[{"name":"idsLength","type":"uint256","internalType":"uint256"},{"name":"valuesLength","type":"uint256","internalType":"uint256"}]},{"type":"error","name":"ERC1155InvalidOperator","inputs":[{"name":"operator","type":"address","internalType":"address"}]},{"type":"error","name":"ERC1155InvalidReceiver","inputs":[{"name":"receiver","type":"address","internalType":"address"}]},{"type":"error","name":"ERC1155InvalidSender","inputs":[{"name":"sender","type":"address","internalType":"address"}]},{"type":"error","name":"ERC1155MissingApprovalForAll","inputs":[{"name":"operator","type":"address","internalType":"address"},{"name":"owner","type":"address","internalType":"address"}]},{"type":"error","name":"EnforcedPause","inputs":[]},{"type":"error","name":"ExpectedPause","inputs":[]},{"type":"error","name":"OwnableInvalidOwner","inputs":[{"name":"owner","type":"address","internalType":"address"}]},{"type":"error","name":"OwnableUnauthorizedAccount","inputs":[{"name":"account","type":"address","internalType":"address"}]},{"type":"error","name":"ReentrancyGuardReentrantCall","inputs":[]}],"bytecode":{"object":"0x60806040526001600755348015610014575f5ffd5b506040516129e13803806129e183398101604081905261003391610103565b338161003e8161008e565b506001600160a01b03811661006c57604051631e4fbdf760e01b81525f600482015260240160405180910390fd5b6100758161009e565b50600160045560086100878282610237565b50506102f1565b600261009a8282610237565b5050565b600380546001600160a01b038381166001600160a01b0319831681179093556040519116919082907f8be0079c531659141344cd1fd0a4f28419497f9722a3daafe3b4186f6b6457e0905f90a35050565b634e487b7160e01b5f52604160045260245ffd5b5f60208284031215610113575f5ffd5b81516001600160401b03811115610128575f5ffd5b8201601f81018413610138575f5ffd5b80516001600160401b03811115610151576101516100ef565b604051601f8201601f19908116603f011681016001600160401b038111828210171561017f5761017f6100ef565b604052818152828201602001861015610196575f5ffd5b8160208401602083015e5f91810160200191909152949350505050565b600181811c908216806101c757607f821691505b6020821081036101e557634e487b7160e01b5f52602260045260245ffd5b50919050565b601f82111561023257805f5260205f20601f840160051c810160208510156102105750805b601f840160051c820191505b8181101561022f575f815560010161021c565b50505b505050565b81516001600160401b03811115610250576102506100ef565b6102648161025e84546101b3565b846101eb565b6020601f821160018114610296575f831561027f5750848201515b5f19600385901b1c1916600184901b17845561022f565b5f84815260208120601f198516915b828110156102c557878501518255602094850194600190920191016102a5565b50848210156102e257868401515f19600387901b60f8161c191681555b50505050600190811b01905550565b6126e3806102fe5f395ff3fe608060405260043610610160575f3560e01c80636c0360eb116100cd578063a22cb46511610087578063e985e9c511610062578063e985e9c514610415578063f242432a14610434578063f2fde38b14610453578063f7b1080814610472575f5ffd5b8063a22cb465146103a9578063aa2fe91b146103c8578063dc84ee51146103f6575f5ffd5b80636c0360eb14610314578063715018a6146103285780638456cb591461033c5780638bf0af3e146103505780638da5cb5b146103635780639c0c891f1461038a575f5ffd5b80633f4ba83a1161011e5780633f4ba83a14610259578063475ae0391461026d5780634e1273f41461028c57806355f804b3146102b85780635c975abb146102d75780635f710f5c146102f5575f5ffd5b8062fdd58e1461016457806301ffc9a7146101965780630e89341c146101c55780632eb2c2d6146101f157806332665ffb1461021257806339500f3414610244575b5f5ffd5b34801561016f575f5ffd5b5061018361017e366004611d3a565b6104a5565b6040519081526020015b60405180910390f35b3480156101a1575f5ffd5b506101b56101b0366004611d77565b6104cc565b604051901515815260200161018d565b3480156101d0575f5ffd5b506101e46101df366004611d99565b61051b565b60405161018d9190611dde565b3480156101fc575f5ffd5b5061021061020b366004611f31565b61077d565b005b34801561021d575f5ffd5b5061023161022c366004611d99565b6107e9565b60405161018d9796959493929190611fdd565b34801561024f575f5ffd5b5061018360075481565b348015610264575f5ffd5b50610210610a43565b348015610278575f5ffd5b50610210610287366004612037565b610a55565b348015610297575f5ffd5b506102ab6102a6366004612050565b610a7d565b60405161018d919061214b565b3480156102c3575f5ffd5b506102106102d236600461215d565b610b47565b3480156102e2575f5ffd5b50600354600160a01b900460ff166101b5565b348015610300575f5ffd5b5061021061030f366004612037565b610b68565b34801561031f575f5ffd5b506101e4610b93565b348015610333575f5ffd5b50610210610c1f565b348015610347575f5ffd5b50610210610c30565b61021061035e366004612196565b610c40565b34801561036e575f5ffd5b506003546040516001600160a01b03909116815260200161018d565b348015610395575f5ffd5b506102106103a43660046121c5565b610ea5565b3480156103b4575f5ffd5b506102106103c33660046121ef565b610f5b565b3480156103d3575f5ffd5b506101b56103e2366004612037565b60066020525f908152604090205460ff1681565b348015610401575f5ffd5b50610183610410366004612217565b610f66565b348015610420575f5ffd5b506101b561042f36600461229c565b611107565b34801561043f575f5ffd5b5061021061044e3660046122c4565b611134565b34801561045e575f5ffd5b5061021061046d366004612037565b611193565b34801561047d575f5ffd5b5061049161048c366004611d99565b6111cd565b60405161018d989796959493929190612317565b5f818152602081815260408083206001600160a01b03861684529091529020545b92915050565b5f6001600160e01b03198216636cdb3d1360e11b14806104fc57506001600160e01b031982166303a24d0760e21b145b806104c657506301ffc9a760e01b6001600160e01b03198316146104c6565b60605f60055f8481526020019081526020015f20604051806101000160405290815f8201805461054a9061238c565b80601f01602080910402602001604051908101604052809291908181526020018280546105769061238c565b80156105c15780601f10610598576101008083540402835291602001916105c1565b820191905f5260205f20905b8154815290600101906020018083116105a457829003601f168201915b505050505081526020016001820180546105da9061238c565b80601f01602080910402602001604051908101604052809291908181526020018280546106069061238c565b80156106515780601f1061062857610100808354040283529160200191610651565b820191905f5260205f20905b81548152906001019060200180831161063457829003601f168201915b505050918352505060028201546020820152600382015460408201526004820154606082015260058201546001600160a01b0381166080830152600160a01b900460ff16151560a082015260068201805460c0909201916106b19061238c565b80601f01602080910402602001604051908101604052809291908181526020018280546106dd9061238c565b80156107285780601f106106ff57610100808354040283529160200191610728565b820191905f5260205f20905b81548152906001019060200180831161070b57829003601f168201915b50505050508152505090505f8160e0015151111561074a5760e0015192915050565b6008610755846113b4565b6040516020016107669291906123c4565b604051602081830303815290604052915050919050565b336001600160a01b038616811480159061079e575061079c8682611107565b155b156107d45760405163711bec9160e11b81526001600160a01b038083166004830152871660248201526044015b60405180910390fd5b6107e18686868686611443565b505050505050565b6060805f5f5f5f5f5f60055f8a81526020019081526020015f20604051806101000160405290815f8201805461081e9061238c565b80601f016020809104026020016040519081016040528092919081815260200182805461084a9061238c565b80156108955780601f1061086c57610100808354040283529160200191610895565b820191905f5260205f20905b81548152906001019060200180831161087857829003601f168201915b505050505081526020016001820180546108ae9061238c565b80601f01602080910402602001604051908101604052809291908181526020018280546108da9061238c565b80156109255780601f106108fc57610100808354040283529160200191610925565b820191905f5260205f20905b81548152906001019060200180831161090857829003601f168201915b505050918352505060028201546020820152600382015460408201526004820154606082015260058201546001600160a01b0381166080830152600160a01b900460ff16151560a082015260068201805460c0909201916109859061238c565b80601f01602080910402602001604051908101604052809291908181526020018280546109b19061238c565b80156109fc5780601f106109d3576101008083540402835291602001916109fc565b820191905f5260205f20905b8154815290600101906020018083116109df57829003601f168201915b5050505050815250509050805f015181602001518260400151836060015184608001518560a001518660c00151975097509750975097509750975050919395979092949650565b610a4b6114a8565b610a536114d5565b565b610a5d6114a8565b6001600160a01b03165f908152600660205260409020805460ff19169055565b60608151835114610aae5781518351604051635b05999160e01b8152600481019290925260248201526044016107cb565b5f83516001600160401b03811115610ac857610ac8611df0565b604051908082528060200260200182016040528015610af1578160200160208202803683370190505b5090505f5b8451811015610b3f57602080820286010151610b1a906020808402870101516104a5565b828281518110610b2c57610b2c612444565b6020908102919091010152600101610af6565b509392505050565b610b4f6114a8565b6008610b5b82826124a1565b50610b658161152a565b50565b610b706114a8565b6001600160a01b03165f908152600660205260409020805460ff19166001179055565b60088054610ba09061238c565b80601f0160208091040260200160405190810160405280929190818152602001828054610bcc9061238c565b8015610c175780601f10610bee57610100808354040283529160200191610c17565b820191905f5260205f20905b815481529060010190602001808311610bfa57829003601f168201915b505050505081565b610c276114a8565b610a535f611536565b610c386114a8565b610a53611587565b610c486115ca565b610c506115f4565b5f82815260056020819052604090912090810154600160a01b900460ff16610cb05760405162461bcd60e51b815260206004820152601360248201527250726f7065727479206e6f742061637469766560681b60448201526064016107cb565b5f8211610cff5760405162461bcd60e51b815260206004820152601d60248201527f416d6f756e74206d7573742062652067726561746572207468616e203000000060448201526064016107cb565b8060030154821115610d535760405162461bcd60e51b815260206004820152601b60248201527f4e6f7420656e6f75676820746f6b656e7320617661696c61626c65000000000060448201526064016107cb565b5f816004015483610d64919061256f565b905080341015610dad5760405162461bcd60e51b8152602060048201526014602482015273125b9cdd59999a58da595b9d081c185e5b595b9d60621b60448201526064016107cb565b82826003015f828254610dc09190612586565b92505081905550610de133858560405180602001604052805f81525061161f565b60058201546040516001600160a01b039091169082156108fc029083905f818181858888f19350505050158015610e1a573d5f5f3e3d5ffd5b5080341115610e5857336108fc610e318334612586565b6040518115909202915f818181858888f19350505050158015610e56573d5f5f3e3d5ffd5b505b6040805184815260208101839052339186917fe8d7e55108ae7ddb60173461d2950c7a8e22a7ac7f442825564fe84c8c6f9a38910160405180910390a35050610ea16001600455565b5050565b335f9081526006602052604090205460ff1680610ecc57506003546001600160a01b031633145b610f095760405162461bcd60e51b815260206004820152600e60248201526d139bdd08185d5d1a1bdc9a5e995960921b60448201526064016107cb565b5f828152600560208190526040808320909101805460ff60a01b1916600160a01b851515021790555183917f7ad43e2b215acc30fe68db10cbf57c6b2b699ef7572e54808c2a106fb904f3fb91a25050565b610ea133838361167a565b335f9081526006602052604081205460ff1680610f8d57506003546001600160a01b031633145b610fca5760405162461bcd60e51b815260206004820152600e60248201526d139bdd08185d5d1a1bdc9a5e995960921b60448201526064016107cb565b600780545f9182610fda83612599565b90915550604080516101008101825289815260208082018a905281830189905260608201899052608082018890523360a0830152600160c083015260e082018790525f84815260059091529190912081519293509091819061103c90826124a1565b506020820151600182019061105190826124a1565b5060408201516002820155606082015160038201556080820151600482015560a082015160058201805460c08501511515600160a01b026001600160a81b03199091166001600160a01b039093169290921791909117905560e082015160068201906110bd90826124a1565b5050604080518781526020810187905233925083917f1de8b9d906eb2b45a95ecf1939a849929c99b41c579b1c126a57d560695992a5910160405180910390a39695505050505050565b6001600160a01b039182165f90815260016020908152604080832093909416825291909152205460ff1690565b336001600160a01b038616811480159061115557506111538682611107565b155b156111865760405163711bec9160e11b81526001600160a01b038083166004830152871660248201526044016107cb565b6107e1868686868661170e565b61119b6114a8565b6001600160a01b0381166111c457604051631e4fbdf760e01b81525f60048201526024016107cb565b610b6581611536565b60056020525f90815260409020805481906111e79061238c565b80601f01602080910402602001604051908101604052809291908181526020018280546112139061238c565b801561125e5780601f106112355761010080835404028352916020019161125e565b820191905f5260205f20905b81548152906001019060200180831161124157829003601f168201915b5050505050908060010180546112739061238c565b80601f016020809104026020016040519081016040528092919081815260200182805461129f9061238c565b80156112ea5780601f106112c1576101008083540402835291602001916112ea565b820191905f5260205f20905b8154815290600101906020018083116112cd57829003601f168201915b5050505060028301546003840154600485015460058601546006870180549697949693955091936001600160a01b03821693600160a01b90920460ff169290916113339061238c565b80601f016020809104026020016040519081016040528092919081815260200182805461135f9061238c565b80156113aa5780601f10611381576101008083540402835291602001916113aa565b820191905f5260205f20905b81548152906001019060200180831161138d57829003601f168201915b5050505050905088565b60605f6113c08361179a565b60010190505f816001600160401b038111156113de576113de611df0565b6040519080825280601f01601f191660200182016040528015611408576020820181803683370190505b5090508181016020015b5f19016f181899199a1a9b1b9c1cb0b131b232b360811b600a86061a8153600a850494508461141257509392505050565b6001600160a01b03841661146c57604051632bfa23e760e11b81525f60048201526024016107cb565b6001600160a01b03851661149457604051626a0d4560e21b81525f60048201526024016107cb565b6114a18585858585611871565b5050505050565b6003546001600160a01b03163314610a535760405163118cdaa760e01b81523360048201526024016107cb565b6114dd6118c4565b6003805460ff60a01b191690557f5db9ee0a495bf2e6ff9c91a7834c1ba4fdd244a5e8aa4e537bd38aeae4b073aa335b6040516001600160a01b03909116815260200160405180910390a1565b6002610ea182826124a1565b600380546001600160a01b038381166001600160a01b0319831681179093556040519116919082907f8be0079c531659141344cd1fd0a4f28419497f9722a3daafe3b4186f6b6457e0905f90a35050565b61158f6115f4565b6003805460ff60a01b1916600160a01b1790557f62e78cea01bee320cd4e420270b5ea74000d11b0c9f74754ebdbfc544b05a25861150d3390565b6002600454036115ed57604051633ee5aeb560e01b815260040160405180910390fd5b6002600455565b600354600160a01b900460ff1615610a535760405163d93c066560e01b815260040160405180910390fd5b6001600160a01b03841661164857604051632bfa23e760e11b81525f60048201526024016107cb565b604080516001808252602082018690528183019081526060820185905260808201909252906107e15f87848487611871565b6001600160a01b0382166116a25760405162ced3e160e81b81525f60048201526024016107cb565b6001600160a01b038381165f81815260016020908152604080832094871680845294825291829020805460ff191686151590811790915591519182527f17307eab39ab6107e8899845ad3d59bd9653f200f220920489ca2b5937696c31910160405180910390a3505050565b6001600160a01b03841661173757604051632bfa23e760e11b81525f60048201526024016107cb565b6001600160a01b03851661175f57604051626a0d4560e21b81525f60048201526024016107cb565b604080516001808252602082018690528183019081526060820185905260808201909252906117918787848487611871565b50505050505050565b5f8072184f03e93ff9f4daa797ed6e38ed64bf6a1f0160401b83106117d85772184f03e93ff9f4daa797ed6e38ed64bf6a1f0160401b830492506040015b6d04ee2d6d415b85acef81000000008310611804576d04ee2d6d415b85acef8100000000830492506020015b662386f26fc10000831061182257662386f26fc10000830492506010015b6305f5e100831061183a576305f5e100830492506008015b612710831061184e57612710830492506004015b60648310611860576064830492506002015b600a83106104c65760010192915050565b61187d858585856118ee565b6001600160a01b038416156114a157825133906001036118b657602084810151908401516118af838989858589611908565b50506107e1565b6107e1818787878787611a29565b600354600160a01b900460ff16610a5357604051638dfc202b60e01b815260040160405180910390fd5b6118f66115f4565b61190284848484611b10565b50505050565b6001600160a01b0384163b156107e15760405163f23a6e6160e01b81526001600160a01b0385169063f23a6e619061194c90899089908890889088906004016125b1565b6020604051808303815f875af1925050508015611986575060408051601f3d908101601f19168201909252611983918101906125f5565b60015b6119ed573d8080156119b3576040519150601f19603f3d011682016040523d82523d5f602084013e6119b8565b606091505b5080515f036119e557604051632bfa23e760e11b81526001600160a01b03861660048201526024016107cb565b805160208201fd5b6001600160e01b0319811663f23a6e6160e01b1461179157604051632bfa23e760e11b81526001600160a01b03861660048201526024016107cb565b6001600160a01b0384163b156107e15760405163bc197c8160e01b81526001600160a01b0385169063bc197c8190611a6d9089908990889088908890600401612610565b6020604051808303815f875af1925050508015611aa7575060408051601f3d908101601f19168201909252611aa4918101906125f5565b60015b611ad4573d8080156119b3576040519150601f19603f3d011682016040523d82523d5f602084013e6119b8565b6001600160e01b0319811663bc197c8160e01b1461179157604051632bfa23e760e11b81526001600160a01b03861660048201526024016107cb565b8051825114611b3f5781518151604051635b05999160e01b8152600481019290925260248201526044016107cb565b335f5b8351811015611c41576020818102858101820151908501909101516001600160a01b03881615611bf3575f828152602081815260408083206001600160a01b038c16845290915290205481811015611bcd576040516303dee4c560e01b81526001600160a01b038a1660048201526024810182905260448101839052606481018490526084016107cb565b5f838152602081815260408083206001600160a01b038d16845290915290209082900390555b6001600160a01b03871615611c37575f828152602081815260408083206001600160a01b038b16845290915281208054839290611c3190849061266d565b90915550505b5050600101611b42565b508251600103611cc15760208301515f906020840151909150856001600160a01b0316876001600160a01b0316846001600160a01b03167fc3d58168c5ae7397731d063d5bbf3d657854427343f4c083240f7aacaa2d0f628585604051611cb2929190918252602082015260400190565b60405180910390a450506114a1565b836001600160a01b0316856001600160a01b0316826001600160a01b03167f4a39dc06d4c0dbc64b70af90fd698a233a518aa5d07e595d983b8c0526c8f7fb8686604051611d10929190612680565b60405180910390a45050505050565b80356001600160a01b0381168114611d35575f5ffd5b919050565b5f5f60408385031215611d4b575f5ffd5b611d5483611d1f565b946020939093013593505050565b6001600160e01b031981168114610b65575f5ffd5b5f60208284031215611d87575f5ffd5b8135611d9281611d62565b9392505050565b5f60208284031215611da9575f5ffd5b5035919050565b5f81518084528060208401602086015e5f602082860101526020601f19601f83011685010191505092915050565b602081525f611d926020830184611db0565b634e487b7160e01b5f52604160045260245ffd5b604051601f8201601f191681016001600160401b0381118282101715611e2c57611e2c611df0565b604052919050565b5f6001600160401b03821115611e4c57611e4c611df0565b5060051b60200190565b5f82601f830112611e65575f5ffd5b8135611e78611e7382611e34565b611e04565b8082825260208201915060208360051b860101925085831115611e99575f5ffd5b602085015b83811015611eb6578035835260209283019201611e9e565b5095945050505050565b5f82601f830112611ecf575f5ffd5b8135602083015f5f6001600160401b03841115611eee57611eee611df0565b50601f8301601f1916602001611f0381611e04565b915050828152858383011115611f17575f5ffd5b828260208301375f92810160200192909252509392505050565b5f5f5f5f5f60a08688031215611f45575f5ffd5b611f4e86611d1f565b9450611f5c60208701611d1f565b935060408601356001600160401b03811115611f76575f5ffd5b611f8288828901611e56565b93505060608601356001600160401b03811115611f9d575f5ffd5b611fa988828901611e56565b92505060808601356001600160401b03811115611fc4575f5ffd5b611fd088828901611ec0565b9150509295509295909350565b60e081525f611fef60e083018a611db0565b8281036020840152612001818a611db0565b60408401989098525050606081019490945260808401929092526001600160a01b031660a0830152151560c09091015292915050565b5f60208284031215612047575f5ffd5b611d9282611d1f565b5f5f60408385031215612061575f5ffd5b82356001600160401b03811115612076575f5ffd5b8301601f81018513612086575f5ffd5b8035612094611e7382611e34565b8082825260208201915060208360051b8501019250878311156120b5575f5ffd5b6020840193505b828410156120de576120cd84611d1f565b8252602093840193909101906120bc565b945050505060208301356001600160401b038111156120fb575f5ffd5b61210785828601611e56565b9150509250929050565b5f8151808452602084019350602083015f5b82811015612141578151865260209586019590910190600101612123565b5093949350505050565b602081525f611d926020830184612111565b5f6020828403121561216d575f5ffd5b81356001600160401b03811115612182575f5ffd5b61218e84828501611ec0565b949350505050565b5f5f604083850312156121a7575f5ffd5b50508035926020909101359150565b80358015158114611d35575f5ffd5b5f5f604083850312156121d6575f5ffd5b823591506121e6602084016121b6565b90509250929050565b5f5f60408385031215612200575f5ffd5b61220983611d1f565b91506121e6602084016121b6565b5f5f5f5f5f60a0868803121561222b575f5ffd5b85356001600160401b03811115612240575f5ffd5b61224c88828901611ec0565b95505060208601356001600160401b03811115612267575f5ffd5b61227388828901611ec0565b945050604086013592506060860135915060808601356001600160401b03811115611fc4575f5ffd5b5f5f604083850312156122ad575f5ffd5b6122b683611d1f565b91506121e660208401611d1f565b5f5f5f5f5f60a086880312156122d8575f5ffd5b6122e186611d1f565b94506122ef60208701611d1f565b9350604086013592506060860135915060808601356001600160401b03811115611fc4575f5ffd5b61010081525f61232b61010083018b611db0565b828103602084015261233d818b611db0565b604084018a905260608401899052608084018890526001600160a01b03871660a085015285151560c085015283810360e0850152905061237d8185611db0565b9b9a5050505050505050505050565b600181811c908216806123a057607f821691505b6020821081036123be57634e487b7160e01b5f52602260045260245ffd5b50919050565b5f5f84546123d18161238c565b6001821680156123e857600181146123fd5761242a565b60ff198316865281151582028601935061242a565b875f5260205f205f5b8381101561242257815488820152600190910190602001612406565b505081860193505b50505083518060208601835e5f9101908152949350505050565b634e487b7160e01b5f52603260045260245ffd5b601f82111561249c57805f5260205f20601f840160051c8101602085101561247d5750805b601f840160051c820191505b818110156114a1575f8155600101612489565b505050565b81516001600160401b038111156124ba576124ba611df0565b6124ce816124c8845461238c565b84612458565b6020601f821160018114612500575f83156124e95750848201515b5f19600385901b1c1916600184901b1784556114a1565b5f84815260208120601f198516915b8281101561252f578785015182556020948501946001909201910161250f565b508482101561254c57868401515f19600387901b60f8161c191681555b50505050600190811b01905550565b634e487b7160e01b5f52601160045260245ffd5b80820281158282048414176104c6576104c661255b565b818103818111156104c6576104c661255b565b5f600182016125aa576125aa61255b565b5060010190565b6001600160a01b03868116825285166020820152604081018490526060810183905260a0608082018190525f906125ea90830184611db0565b979650505050505050565b5f60208284031215612605575f5ffd5b8151611d9281611d62565b6001600160a01b0386811682528516602082015260a0604082018190525f9061263b90830186612111565b828103606084015261264d8186612111565b905082810360808401526126618185611db0565b98975050505050505050565b808201808211156104c6576104c661255b565b604081525f6126926040830185612111565b82810360208401526126a48185612111565b9594505050505056fea2646970667358221220d90475df38ce5ecddee2df1cd9aa8a86768f43421292e1200442bd5d26708cc164736f6c634300081e0033","linkReferences":{}},"methodIdentifiers":{"addAuthorizedMinter(address)":"5f710f5c","authorizedMinters(address)":"aa2fe91b","balanceOf(address,uint256)":"00fdd58e","balanceOfBatch(address[],uint256[])":"4e1273f4","baseURI()":"6c0360eb","getProperty(uint256)":"32665ffb","isApprovedForAll(address,address)":"e985e9c5","nextPropertyId()":"39500f34","owner()":"8da5cb5b","pause()":"8456cb59","paused()":"5c975abb","properties(uint256)":"f7b10808","purchaseTokens(uint256,uint256)":"8bf0af3e","removeAuthorizedMinter(address)":"475ae039","renounceOwnership()":"715018a6","safeBatchTransferFrom(address,address,uint256[],uint256[],bytes)":"2eb2c2d6","safeTransferFrom(address,address,uint256,uint256,bytes)":"f242432a","setApprovalForAll(address,bool)":"a22cb465","setBaseURI(string)":"55f804b3","supportsInterface(bytes4)":"01ffc9a7","tokenizeProperty(string,string,uint256,uint256,string)":"dc84ee51","transferOwnership(address)":"f2fde38b","unpause()":"3f4ba83a","updatePropertyStatus(uint256,bool)":"9c0c891f","uri(uint256)":"0e89341c"},"id":1}