{"abi":[{"type":"constructor","inputs":[{"name":"_paymentToken","type":"address","internalType":"address"},{"name":"_marketplaceFee","type":"uint256","internalType":"uint256"}],"stateMutability":"nonpayable"},{"type":"function","name":"cancelListing","inputs":[{"name":"_listingId","type":"uint256","internalType":"uint256"}],"outputs":[],"stateMutability":"nonpayable"},{"type":"function","name":"createListing","inputs":[{"name":"amount","type":"uint256","internalType":"uint256"},{"name":"pricePerToken","type":"uint256","internalType":"uint256"}],"outputs":[],"stateMutability":"nonpayable"},{"type":"function","name":"listings","inputs":[{"name":"","type":"uint256","internalType":"uint256"}],"outputs":[{"name":"seller","type":"address","internalType":"address"},{"name":"amount","type":"uint256","internalType":"uint256"},{"name":"pricePerToken","type":"uint256","internalType":"uint256"},{"name":"isActive","type":"bool","internalType":"bool"}],"stateMutability":"view"},{"type":"function","name":"marketplaceFee","inputs":[],"outputs":[{"name":"","type":"uint256","internalType":"uint256"}],"stateMutability":"view"},{"type":"function","name":"nextListingId","inputs":[],"outputs":[{"name":"","type":"uint256","internalType":"uint256"}],"stateMutability":"view"},{"type":"function","name":"owner","inputs":[],"outputs":[{"name":"","type":"address","internalType":"address"}],"stateMutability":"view"},{"type":"function","name":"pause","inputs":[],"outputs":[],"stateMutability":"nonpayable"},{"type":"function","name":"paused","inputs":[],"outputs":[{"name":"","type":"bool","internalType":"bool"}],"stateMutability":"view"},{"type":"function","name":"paymentToken","inputs":[],"outputs":[{"name":"","type":"address","internalType":"contract IERC20"}],"stateMutability":"view"},{"type":"function","name":"purchaseTokens","inputs":[{"name":"_listingId","type":"uint256","internalType":"uint256"},{"name":"amount","type":"uint256","internalType":"uint256"}],"outputs":[],"stateMutability":"payable"},{"type":"function","name":"recoverToken","inputs":[{"name":"tokenAddress","type":"address","internalType":"address"}],"outputs":[],"stateMutability":"nonpayable"},{"type":"function","name":"renounceOwnership","inputs":[],"outputs":[],"stateMutability":"nonpayable"},{"type":"function","name":"setMarketplaceFee","inputs":[{"name":"_fee","type":"uint256","internalType":"uint256"}],"outputs":[],"stateMutability":"nonpayable"},{"type":"function","name":"transferOwnership","inputs":[{"name":"newOwner","type":"address","internalType":"address"}],"outputs":[],"stateMutability":"nonpayable"},{"type":"function","name":"unpause","inputs":[],"outputs":[],"stateMutability":"nonpayable"},{"type":"function","name":"withdrawETH","inputs":[],"outputs":[],"stateMutability":"nonpayable"},{"type":"event","name":"ListingCancelled","inputs":[{"name":"listingId","type":"uint256","indexed":true,"internalType":"uint256"}],"anonymous":false},{"type":"event","name":"OwnershipTransferred","inputs":[{"name":"previousOwner","type":"address","indexed":true,"internalType":"address"},{"name":"newOwner","type":"address","indexed":true,"internalType":"address"}],"anonymous":false},{"type":"event","name":"Paused","inputs":[{"name":"account","type":"address","indexed":false,"internalType":"address"}],"anonymous":false},{"type":"event","name":"TokenListed","inputs":[{"name":"listingId","type":"uint256","indexed":true,"internalType":"uint256"},{"name":"seller","type":"address","indexed":false,"internalType":"address"},{"name":"amount","type":"uint256","indexed":false,"internalType":"uint256"},{"name":"pricePerToken","type":"uint256","indexed":false,"internalType":"uint256"}],"anonymous":false},{"type":"event","name":"TokenPurchased","inputs":[{"name":"listingId","type":"uint256","indexed":true,"internalType":"uint256"},{"name":"buyer","type":"address","indexed":false,"internalType":"address"},{"name":"amount","type":"uint256","indexed":false,"internalType":"uint256"}],"anonymous":false},{"type":"event","name":"Unpaused","inputs":[{"name":"account","type":"address","indexed":false,"internalType":"address"}],"anonymous":false},{"type":"error","name":"EnforcedPause","inputs":[]},{"type":"error","name":"ExpectedPause","inputs":[]},{"type":"error","name":"OwnableInvalidOwner","inputs":[{"name":"owner","type":"address","internalType":"address"}]},{"type":"error","name":"OwnableUnauthorizedAccount","inputs":[{"name":"account","type":"address","internalType":"address"}]},{"type":"error","name":"ReentrancyGuardReentrantCall","inputs":[]},{"type":"error","name":"SafeERC20FailedOperation","inputs":[{"name":"token","type":"address","internalType":"address"}]}],"bytecode":{"object":"0x608060405234801561000f575f5ffd5b50604051610ec1380380610ec183398101604081905261002e916100db565b60015f55338061005757604051631e4fbdf760e01b81525f600482015260240160405180910390fd5b6100608161008a565b50600280546001600160a01b0319166001600160a01b039390931692909217909155600355610112565b600180546001600160a01b038381166001600160a01b0319831681179093556040519116919082907f8be0079c531659141344cd1fd0a4f28419497f9722a3daafe3b4186f6b6457e0905f90a35050565b5f5f604083850312156100ec575f5ffd5b82516001600160a01b0381168114610102575f5ffd5b6020939093015192949293505050565b610da28061011f5f395ff3fe6080604052600436106100ef575f3560e01c80638da5cb5b11610087578063aaccf1ec11610057578063aaccf1ec14610265578063de74e57b1461027a578063e086e5ec146102f3578063f2fde38b14610307575f5ffd5b80638da5cb5b146101eb5780639407ea98146102085780639be65a6014610227578063a79123a914610246575f5ffd5b80636a166964116100c25780636a1669641461018d578063715018a6146101b05780638456cb59146101c45780638bf0af3e146101d8575f5ffd5b80633013ce29146100f3578063305a67a81461012f5780633f4ba83a146101505780635c975abb14610164575b5f5ffd5b3480156100fe575f5ffd5b50600254610112906001600160a01b031681565b6040516001600160a01b0390911681526020015b60405180910390f35b34801561013a575f5ffd5b5061014e610149366004610c57565b610326565b005b34801561015b575f5ffd5b5061014e610440565b34801561016f575f5ffd5b50600154600160a01b900460ff166040519015158152602001610126565b348015610198575f5ffd5b506101a260035481565b604051908152602001610126565b3480156101bb575f5ffd5b5061014e610452565b3480156101cf575f5ffd5b5061014e610463565b61014e6101e6366004610c6e565b610473565b3480156101f6575f5ffd5b506001546001600160a01b0316610112565b348015610213575f5ffd5b5061014e610222366004610c57565b6106b5565b348015610232575f5ffd5b5061014e610241366004610c8e565b6106c2565b348015610251575f5ffd5b5061014e610260366004610c6e565b6107bd565b348015610270575f5ffd5b506101a260055481565b348015610285575f5ffd5b506102c7610294366004610c57565b60046020525f908152604090208054600182015460028301546003909301546001600160a01b0390921692909160ff1684565b604080516001600160a01b03909516855260208501939093529183015215156060820152608001610126565b3480156102fe575f5ffd5b5061014e61093d565b348015610312575f5ffd5b5061014e610321366004610c8e565b61097b565b61032e6109b5565b6103366109dd565b5f818152600460205260409020600381015460ff166103915760405162461bcd60e51b81526020600482015260126024820152714c697374696e67206e6f742061637469766560701b60448201526064015b60405180910390fd5b80546001600160a01b031633146103db5760405162461bcd60e51b815260206004820152600e60248201526d2737ba103a34329039b2b63632b960911b6044820152606401610388565b805460018201546002546103fd926001600160a01b0391821692911690610a08565b60038101805460ff1916905560405182907f411aee90354c51b1b04cd563fcab2617142a9d50da19232d888547c8a1b7fd8a905f90a25061043d60015f55565b50565b610448610a6c565b610450610a99565b565b61045a610a6c565b6104505f610aee565b61046b610a6c565b610450610b3f565b61047b6109b5565b6104836109dd565b5f828152600460205260409020600381015460ff166104d95760405162461bcd60e51b81526020600482015260126024820152714c697374696e67206e6f742061637469766560701b6044820152606401610388565b5f821180156104ec575080600101548211155b6105295760405162461bcd60e51b815260206004820152600e60248201526d125b9d985b1a5908185b5bdd5b9d60921b6044820152606401610388565b5f81600201548361053a9190610ccf565b90508034146105825760405162461bcd60e51b8152602060048201526014602482015273125b98dbdc9c9958dd0811551208185b5bdd5b9d60621b6044820152606401610388565b5f612710600354836105949190610ccf565b61059e9190610cec565b90505f6105ab8284610d0b565b84546040519192506001600160a01b03169082156108fc029083905f818181858888f193505050501580156105e2573d5f5f3e3d5ffd5b508115610622576001546040516001600160a01b039091169083156108fc029084905f818181858888f19350505050158015610620573d5f5f3e3d5ffd5b505b600254610639906001600160a01b03163387610a08565b84846001015f82825461064c9190610d0b565b909155505060018401545f036106695760038401805460ff191690555b604080513381526020810187905287917f1cb6dd09e77cf64c9d88c8e0cf8555ebff062045f2068f22efcbc60905730e71910160405180910390a2505050506106b160015f55565b5050565b6106bd610a6c565b600355565b6106ca610a6c565b806001600160a01b031663a9059cbb6106eb6001546001600160a01b031690565b6040516370a0823160e01b81523060048201526001600160a01b038516906370a0823190602401602060405180830381865afa15801561072d573d5f5f3e3d5ffd5b505050506040513d601f19601f820116820180604052508101906107519190610d1e565b6040516001600160e01b031960e085901b1681526001600160a01b03909216600483015260248201526044016020604051808303815f875af1158015610799573d5f5f3e3d5ffd5b505050506040513d601f19601f820116820180604052508101906106b19190610d35565b6107c56109b5565b6107cd6109dd565b5f82116108115760405162461bcd60e51b81526020600482015260126024820152710416d6f756e74206d757374206265203e20360741b6044820152606401610388565b5f81116108545760405162461bcd60e51b815260206004820152601160248201527005072696365206d757374206265203e203607c1b6044820152606401610388565b60025461086c906001600160a01b0316333085610b82565b60058054905f61087b83610d54565b90915550506040805160808101825233808252602080830186815283850186815260016060808701828152600580545f908152600488528a9020985189546001600160a01b0319166001600160a01b0390911617895594519288019290925591516002870155516003909501805460ff1916951515959095179094555484519283529082018690529281018490527f2428821d20d9a8080d99a3d335d478f0546d90a0376be12c52a6d600f15586bf910160405180910390a26106b160015f55565b610945610a6c565b6001546040516001600160a01b03909116904780156108fc02915f818181858888f1935050505015801561043d573d5f5f3e3d5ffd5b610983610a6c565b6001600160a01b0381166109ac57604051631e4fbdf760e01b81525f6004820152602401610388565b61043d81610aee565b60025f54036109d757604051633ee5aeb560e01b815260040160405180910390fd5b60025f55565b600154600160a01b900460ff16156104505760405163d93c066560e01b815260040160405180910390fd5b6040516001600160a01b03838116602483015260448201839052610a6791859182169063a9059cbb906064015b604051602081830303815290604052915060e01b6020820180516001600160e01b038381831617835250505050610bc1565b505050565b6001546001600160a01b031633146104505760405163118cdaa760e01b8152336004820152602401610388565b610aa1610c2d565b6001805460ff60a01b191690557f5db9ee0a495bf2e6ff9c91a7834c1ba4fdd244a5e8aa4e537bd38aeae4b073aa335b6040516001600160a01b03909116815260200160405180910390a1565b600180546001600160a01b038381166001600160a01b0319831681179093556040519116919082907f8be0079c531659141344cd1fd0a4f28419497f9722a3daafe3b4186f6b6457e0905f90a35050565b610b476109dd565b6001805460ff60a01b1916600160a01b1790557f62e78cea01bee320cd4e420270b5ea74000d11b0c9f74754ebdbfc544b05a258610ad13390565b6040516001600160a01b038481166024830152838116604483015260648201839052610bbb9186918216906323b872dd90608401610a35565b50505050565b5f5f60205f8451602086015f885af180610be0576040513d5f823e3d81fd5b50505f513d91508115610bf7578060011415610c04565b6001600160a01b0384163b155b15610bbb57604051635274afe760e01b81526001600160a01b0385166004820152602401610388565b600154600160a01b900460ff1661045057604051638dfc202b60e01b815260040160405180910390fd5b5f60208284031215610c67575f5ffd5b5035919050565b5f5f60408385031215610c7f575f5ffd5b50508035926020909101359150565b5f60208284031215610c9e575f5ffd5b81356001600160a01b0381168114610cb4575f5ffd5b9392505050565b634e487b7160e01b5f52601160045260245ffd5b8082028115828204841417610ce657610ce6610cbb565b92915050565b5f82610d0657634e487b7160e01b5f52601260045260245ffd5b500490565b81810381811115610ce657610ce6610cbb565b5f60208284031215610d2e575f5ffd5b5051919050565b5f60208284031215610d45575f5ffd5b81518015158114610cb4575f5ffd5b5f60018201610d6557610d65610cbb565b506001019056fea2646970667358221220f0765b7dc6233b2be8552328ec004dec4cdecd3a0ff2a4cd73308c069dd88a5264736f6c634300081e0033","linkReferences":{}},"methodIdentifiers":{"cancelListing(uint256)":"305a67a8","createListing(uint256,uint256)":"a79123a9","listings(uint256)":"de74e57b","marketplaceFee()":"6a166964","nextListingId()":"aaccf1ec","owner()":"8da5cb5b","pause()":"8456cb59","paused()":"5c975abb","paymentToken()":"3013ce29","purchaseTokens(uint256,uint256)":"8bf0af3e","recoverToken(address)":"9be65a60","renounceOwnership()":"715018a6","setMarketplaceFee(uint256)":"9407ea98","transferOwnership(address)":"f2fde38b","unpause()":"3f4ba83a","withdrawETH()":"e086e5ec"},"id":1}