{"abi":[{"type":"constructor","inputs":[{"name":"_token","type":"address","internalType":"contract IVotes"},{"name":"_timelock","type":"address","internalType":"contract TimelockController"}],"stateMutability":"nonpayable"},{"type":"receive","stateMutability":"payable"},{"type":"function","name":"BALLOT_TYPEHASH","inputs":[],"outputs":[{"name":"","type":"bytes32","internalType":"bytes32"}],"stateMutability":"view"},{"type":"function","name":"CLOCK_MODE","inputs":[],"outputs":[{"name":"","type":"string","internalType":"string"}],"stateMutability":"view"},{"type":"function","name":"COUNTING_MODE","inputs":[],"outputs":[{"name":"","type":"string","internalType":"string"}],"stateMutability":"pure"},{"type":"function","name":"EXTENDED_BALLOT_TYPEHASH","inputs":[],"outputs":[{"name":"","type":"bytes32","internalType":"bytes32"}],"stateMutability":"view"},{"type":"function","name":"cancel","inputs":[{"name":"targets","type":"address[]","internalType":"address[]"},{"name":"values","type":"uint256[]","internalType":"uint256[]"},{"name":"calldatas","type":"bytes[]","internalType":"bytes[]"},{"name":"descriptionHash","type":"bytes32","internalType":"bytes32"}],"outputs":[{"name":"","type":"uint256","internalType":"uint256"}],"stateMutability":"nonpayable"},{"type":"function","name":"castVote","inputs":[{"name":"proposalId","type":"uint256","internalType":"uint256"},{"name":"support","type":"uint8","internalType":"uint8"}],"outputs":[{"name":"","type":"uint256","internalType":"uint256"}],"stateMutability":"nonpayable"},{"type":"function","name":"castVoteBySig","inputs":[{"name":"proposalId","type":"uint256","internalType":"uint256"},{"name":"support","type":"uint8","internalType":"uint8"},{"name":"voter","type":"address","internalType":"address"},{"name":"signature","type":"bytes","internalType":"bytes"}],"outputs":[{"name":"","type":"uint256","internalType":"uint256"}],"stateMutability":"nonpayable"},{"type":"function","name":"castVoteWithReason","inputs":[{"name":"proposalId","type":"uint256","internalType":"uint256"},{"name":"support","type":"uint8","internalType":"uint8"},{"name":"reason","type":"string","internalType":"string"}],"outputs":[{"name":"","type":"uint256","internalType":"uint256"}],"stateMutability":"nonpayable"},{"type":"function","name":"castVoteWithReasonAndParams","inputs":[{"name":"proposalId","type":"uint256","internalType":"uint256"},{"name":"support","type":"uint8","internalType":"uint8"},{"name":"reason","type":"string","internalType":"string"},{"name":"params","type":"bytes","internalType":"bytes"}],"outputs":[{"name":"","type":"uint256","internalType":"uint256"}],"stateMutability":"nonpayable"},{"type":"function","name":"castVoteWithReasonAndParamsBySig","inputs":[{"name":"proposalId","type":"uint256","internalType":"uint256"},{"name":"support","type":"uint8","internalType":"uint8"},{"name":"voter","type":"address","internalType":"address"},{"name":"reason","type":"string","internalType":"string"},{"name":"params","type":"bytes","internalType":"bytes"},{"name":"signature","type":"bytes","internalType":"bytes"}],"outputs":[{"name":"","type":"uint256","internalType":"uint256"}],"stateMutability":"nonpayable"},{"type":"function","name":"clock","inputs":[],"outputs":[{"name":"","type":"uint48","internalType":"uint48"}],"stateMutability":"view"},{"type":"function","name":"eip712Domain","inputs":[],"outputs":[{"name":"fields","type":"bytes1","internalType":"bytes1"},{"name":"name","type":"string","internalType":"string"},{"name":"version","type":"string","internalType":"string"},{"name":"chainId","type":"uint256","internalType":"uint256"},{"name":"verifyingContract","type":"address","internalType":"address"},{"name":"salt","type":"bytes32","internalType":"bytes32"},{"name":"extensions","type":"uint256[]","internalType":"uint256[]"}],"stateMutability":"view"},{"type":"function","name":"execute","inputs":[{"name":"targets","type":"address[]","internalType":"address[]"},{"name":"values","type":"uint256[]","internalType":"uint256[]"},{"name":"calldatas","type":"bytes[]","internalType":"bytes[]"},{"name":"descriptionHash","type":"bytes32","internalType":"bytes32"}],"outputs":[{"name":"","type":"uint256","internalType":"uint256"}],"stateMutability":"payable"},{"type":"function","name":"getProposalId","inputs":[{"name":"targets","type":"address[]","internalType":"address[]"},{"name":"values","type":"uint256[]","internalType":"uint256[]"},{"name":"calldatas","type":"bytes[]","internalType":"bytes[]"},{"name":"descriptionHash","type":"bytes32","internalType":"bytes32"}],"outputs":[{"name":"","type":"uint256","internalType":"uint256"}],"stateMutability":"view"},{"type":"function","name":"getVotes","inputs":[{"name":"account","type":"address","internalType":"address"},{"name":"timepoint","type":"uint256","internalType":"uint256"}],"outputs":[{"name":"","type":"uint256","internalType":"uint256"}],"stateMutability":"view"},{"type":"function","name":"getVotesWithParams","inputs":[{"name":"account","type":"address","internalType":"address"},{"name":"timepoint","type":"uint256","internalType":"uint256"},{"name":"params","type":"bytes","internalType":"bytes"}],"outputs":[{"name":"","type":"uint256","internalType":"uint256"}],"stateMutability":"view"},{"type":"function","name":"hasVoted","inputs":[{"name":"proposalId","type":"uint256","internalType":"uint256"},{"name":"account","type":"address","internalType":"address"}],"outputs":[{"name":"","type":"bool","internalType":"bool"}],"stateMutability":"view"},{"type":"function","name":"hashProposal","inputs":[{"name":"targets","type":"address[]","internalType":"address[]"},{"name":"values","type":"uint256[]","internalType":"uint256[]"},{"name":"calldatas","type":"bytes[]","internalType":"bytes[]"},{"name":"descriptionHash","type":"bytes32","internalType":"bytes32"}],"outputs":[{"name":"","type":"uint256","internalType":"uint256"}],"stateMutability":"pure"},{"type":"function","name":"name","inputs":[],"outputs":[{"name":"","type":"string","internalType":"string"}],"stateMutability":"view"},{"type":"function","name":"nonces","inputs":[{"name":"owner","type":"address","internalType":"address"}],"outputs":[{"name":"","type":"uint256","internalType":"uint256"}],"stateMutability":"view"},{"type":"function","name":"onERC1155BatchReceived","inputs":[{"name":"","type":"address","internalType":"address"},{"name":"","type":"address","internalType":"address"},{"name":"","type":"uint256[]","internalType":"uint256[]"},{"name":"","type":"uint256[]","internalType":"uint256[]"},{"name":"","type":"bytes","internalType":"bytes"}],"outputs":[{"name":"","type":"bytes4","internalType":"bytes4"}],"stateMutability":"nonpayable"},{"type":"function","name":"onERC1155Received","inputs":[{"name":"","type":"address","internalType":"address"},{"name":"","type":"address","internalType":"address"},{"name":"","type":"uint256","internalType":"uint256"},{"name":"","type":"uint256","internalType":"uint256"},{"name":"","type":"bytes","internalType":"bytes"}],"outputs":[{"name":"","type":"bytes4","internalType":"bytes4"}],"stateMutability":"nonpayable"},{"type":"function","name":"onERC721Received","inputs":[{"name":"","type":"address","internalType":"address"},{"name":"","type":"address","internalType":"address"},{"name":"","type":"uint256","internalType":"uint256"},{"name":"","type":"bytes","internalType":"bytes"}],"outputs":[{"name":"","type":"bytes4","internalType":"bytes4"}],"stateMutability":"nonpayable"},{"type":"function","name":"proposalDeadline","inputs":[{"name":"proposalId","type":"uint256","internalType":"uint256"}],"outputs":[{"name":"","type":"uint256","internalType":"uint256"}],"stateMutability":"view"},{"type":"function","name":"proposalEta","inputs":[{"name":"proposalId","type":"uint256","internalType":"uint256"}],"outputs":[{"name":"","type":"uint256","internalType":"uint256"}],"stateMutability":"view"},{"type":"function","name":"proposalNeedsQueuing","inputs":[{"name":"proposalId","type":"uint256","internalType":"uint256"}],"outputs":[{"name":"","type":"bool","internalType":"bool"}],"stateMutability":"view"},{"type":"function","name":"proposalProposer","inputs":[{"name":"proposalId","type":"uint256","internalType":"uint256"}],"outputs":[{"name":"","type":"address","internalType":"address"}],"stateMutability":"view"},{"type":"function","name":"proposalSnapshot","inputs":[{"name":"proposalId","type":"uint256","internalType":"uint256"}],"outputs":[{"name":"","type":"uint256","internalType":"uint256"}],"stateMutability":"view"},{"type":"function","name":"proposalThreshold","inputs":[],"outputs":[{"name":"","type":"uint256","internalType":"uint256"}],"stateMutability":"view"},{"type":"function","name":"proposalVotes","inputs":[{"name":"proposalId","type":"uint256","internalType":"uint256"}],"outputs":[{"name":"againstVotes","type":"uint256","internalType":"uint256"},{"name":"forVotes","type":"uint256","internalType":"uint256"},{"name":"abstainVotes","type":"uint256","internalType":"uint256"}],"stateMutability":"view"},{"type":"function","name":"propose","inputs":[{"name":"targets","type":"address[]","internalType":"address[]"},{"name":"values","type":"uint256[]","internalType":"uint256[]"},{"name":"calldatas","type":"bytes[]","internalType":"bytes[]"},{"name":"description","type":"string","internalType":"string"}],"outputs":[{"name":"","type":"uint256","internalType":"uint256"}],"stateMutability":"nonpayable"},{"type":"function","name":"queue","inputs":[{"name":"targets","type":"address[]","internalType":"address[]"},{"name":"values","type":"uint256[]","internalType":"uint256[]"},{"name":"calldatas","type":"bytes[]","internalType":"bytes[]"},{"name":"descriptionHash","type":"bytes32","internalType":"bytes32"}],"outputs":[{"name":"","type":"uint256","internalType":"uint256"}],"stateMutability":"nonpayable"},{"type":"function","name":"quorum","inputs":[{"name":"blockNumber","type":"uint256","internalType":"uint256"}],"outputs":[{"name":"","type":"uint256","internalType":"uint256"}],"stateMutability":"view"},{"type":"function","name":"quorumDenominator","inputs":[],"outputs":[{"name":"","type":"uint256","internalType":"uint256"}],"stateMutability":"view"},{"type":"function","name":"quorumNumerator","inputs":[{"name":"timepoint","type":"uint256","internalType":"uint256"}],"outputs":[{"name":"","type":"uint256","internalType":"uint256"}],"stateMutability":"view"},{"type":"function","name":"quorumNumerator","inputs":[],"outputs":[{"name":"","type":"uint256","internalType":"uint256"}],"stateMutability":"view"},{"type":"function","name":"relay","inputs":[{"name":"target","type":"address","internalType":"address"},{"name":"value","type":"uint256","internalType":"uint256"},{"name":"data","type":"bytes","internalType":"bytes"}],"outputs":[],"stateMutability":"payable"},{"type":"function","name":"setProposalThreshold","inputs":[{"name":"newProposalThreshold","type":"uint256","internalType":"uint256"}],"outputs":[],"stateMutability":"nonpayable"},{"type":"function","name":"setVotingDelay","inputs":[{"name":"newVotingDelay","type":"uint48","internalType":"uint48"}],"outputs":[],"stateMutability":"nonpayable"},{"type":"function","name":"setVotingPeriod","inputs":[{"name":"newVotingPeriod","type":"uint32","internalType":"uint32"}],"outputs":[],"stateMutability":"nonpayable"},{"type":"function","name":"state","inputs":[{"name":"proposalId","type":"uint256","internalType":"uint256"}],"outputs":[{"name":"","type":"uint8","internalType":"enum IGovernor.ProposalState"}],"stateMutability":"view"},{"type":"function","name":"supportsInterface","inputs":[{"name":"interfaceId","type":"bytes4","internalType":"bytes4"}],"outputs":[{"name":"","type":"bool","internalType":"bool"}],"stateMutability":"view"},{"type":"function","name":"timelock","inputs":[],"outputs":[{"name":"","type":"address","internalType":"address"}],"stateMutability":"view"},{"type":"function","name":"token","inputs":[],"outputs":[{"name":"","type":"address","internalType":"contract IERC5805"}],"stateMutability":"view"},{"type":"function","name":"updateQuorumNumerator","inputs":[{"name":"newQuorumNumerator","type":"uint256","internalType":"uint256"}],"outputs":[],"stateMutability":"nonpayable"},{"type":"function","name":"updateTimelock","inputs":[{"name":"newTimelock","type":"address","internalType":"contract TimelockController"}],"outputs":[],"stateMutability":"nonpayable"},{"type":"function","name":"version","inputs":[],"outputs":[{"name":"","type":"string","internalType":"string"}],"stateMutability":"view"},{"type":"function","name":"votingDelay","inputs":[],"outputs":[{"name":"","type":"uint256","internalType":"uint256"}],"stateMutability":"view"},{"type":"function","name":"votingPeriod","inputs":[],"outputs":[{"name":"","type":"uint256","internalType":"uint256"}],"stateMutability":"view"},{"type":"event","name":"EIP712DomainChanged","inputs":[],"anonymous":false},{"type":"event","name":"ProposalCanceled","inputs":[{"name":"proposalId","type":"uint256","indexed":false,"internalType":"uint256"}],"anonymous":false},{"type":"event","name":"ProposalCreated","inputs":[{"name":"proposalId","type":"uint256","indexed":false,"internalType":"uint256"},{"name":"proposer","type":"address","indexed":false,"internalType":"address"},{"name":"targets","type":"address[]","indexed":false,"internalType":"address[]"},{"name":"values","type":"uint256[]","indexed":false,"internalType":"uint256[]"},{"name":"signatures","type":"string[]","indexed":false,"internalType":"string[]"},{"name":"calldatas","type":"bytes[]","indexed":false,"internalType":"bytes[]"},{"name":"voteStart","type":"uint256","indexed":false,"internalType":"uint256"},{"name":"voteEnd","type":"uint256","indexed":false,"internalType":"uint256"},{"name":"description","type":"string","indexed":false,"internalType":"string"}],"anonymous":false},{"type":"event","name":"ProposalExecuted","inputs":[{"name":"proposalId","type":"uint256","indexed":false,"internalType":"uint256"}],"anonymous":false},{"type":"event","name":"ProposalQueued","inputs":[{"name":"proposalId","type":"uint256","indexed":false,"internalType":"uint256"},{"name":"etaSeconds","type":"uint256","indexed":false,"internalType":"uint256"}],"anonymous":false},{"type":"event","name":"ProposalThresholdSet","inputs":[{"name":"oldProposalThreshold","type":"uint256","indexed":false,"internalType":"uint256"},{"name":"newProposalThreshold","type":"uint256","indexed":false,"internalType":"uint256"}],"anonymous":false},{"type":"event","name":"QuorumNumeratorUpdated","inputs":[{"name":"oldQuorumNumerator","type":"uint256","indexed":false,"internalType":"uint256"},{"name":"newQuorumNumerator","type":"uint256","indexed":false,"internalType":"uint256"}],"anonymous":false},{"type":"event","name":"TimelockChange","inputs":[{"name":"oldTimelock","type":"address","indexed":false,"internalType":"address"},{"name":"newTimelock","type":"address","indexed":false,"internalType":"address"}],"anonymous":false},{"type":"event","name":"VoteCast","inputs":[{"name":"voter","type":"address","indexed":true,"internalType":"address"},{"name":"proposalId","type":"uint256","indexed":false,"internalType":"uint256"},{"name":"support","type":"uint8","indexed":false,"internalType":"uint8"},{"name":"weight","type":"uint256","indexed":false,"internalType":"uint256"},{"name":"reason","type":"string","indexed":false,"internalType":"string"}],"anonymous":false},{"type":"event","name":"VoteCastWithParams","inputs":[{"name":"voter","type":"address","indexed":true,"internalType":"address"},{"name":"proposalId","type":"uint256","indexed":false,"internalType":"uint256"},{"name":"support","type":"uint8","indexed":false,"internalType":"uint8"},{"name":"weight","type":"uint256","indexed":false,"internalType":"uint256"},{"name":"reason","type":"string","indexed":false,"internalType":"string"},{"name":"params","type":"bytes","indexed":false,"internalType":"bytes"}],"anonymous":false},{"type":"event","name":"VotingDelaySet","inputs":[{"name":"oldVotingDelay","type":"uint256","indexed":false,"internalType":"uint256"},{"name":"newVotingDelay","type":"uint256","indexed":false,"internalType":"uint256"}],"anonymous":false},{"type":"event","name":"VotingPeriodSet","inputs":[{"name":"oldVotingPeriod","type":"uint256","indexed":false,"internalType":"uint256"},{"name":"newVotingPeriod","type":"uint256","indexed":false,"internalType":"uint256"}],"anonymous":false},{"type":"error","name":"CheckpointUnorderedInsertion","inputs":[]},{"type":"error","name":"FailedCall","inputs":[]},{"type":"error","name":"GovernorAlreadyCastVote","inputs":[{"name":"voter","type":"address","internalType":"address"}]},{"type":"error","name":"GovernorAlreadyQueuedProposal","inputs":[{"name":"proposalId","type":"uint256","internalType":"uint256"}]},{"type":"error","name":"GovernorDisabledDeposit","inputs":[]},{"type":"error","name":"GovernorInsufficientProposerVotes","inputs":[{"name":"proposer","type":"address","internalType":"address"},{"name":"votes","type":"uint256","internalType":"uint256"},{"name":"threshold","type":"uint256","internalType":"uint256"}]},{"type":"error","name":"GovernorInvalidProposalLength","inputs":[{"name":"targets","type":"uint256","internalType":"uint256"},{"name":"calldatas","type":"uint256","internalType":"uint256"},{"name":"values","type":"uint256","internalType":"uint256"}]},{"type":"error","name":"GovernorInvalidQuorumFraction","inputs":[{"name":"quorumNumerator","type":"uint256","internalType":"uint256"},{"name":"quorumDenominator","type":"uint256","internalType":"uint256"}]},{"type":"error","name":"GovernorInvalidSignature","inputs":[{"name":"voter","type":"address","internalType":"address"}]},{"type":"error","name":"GovernorInvalidVoteParams","inputs":[]},{"type":"error","name":"GovernorInvalidVoteType","inputs":[]},{"type":"error","name":"GovernorInvalidVotingPeriod","inputs":[{"name":"votingPeriod","type":"uint256","internalType":"uint256"}]},{"type":"error","name":"GovernorNonexistentProposal","inputs":[{"name":"proposalId","type":"uint256","internalType":"uint256"}]},{"type":"error","name":"GovernorNotQueuedProposal","inputs":[{"name":"proposalId","type":"uint256","internalType":"uint256"}]},{"type":"error","name":"GovernorOnlyExecutor","inputs":[{"name":"account","type":"address","internalType":"address"}]},{"type":"error","name":"GovernorQueueNotImplemented","inputs":[]},{"type":"error","name":"GovernorRestrictedProposer","inputs":[{"name":"proposer","type":"address","internalType":"address"}]},{"type":"error","name":"GovernorUnableToCancel","inputs":[{"name":"proposalId","type":"uint256","internalType":"uint256"},{"name":"account","type":"address","internalType":"address"}]},{"type":"error","name":"GovernorUnexpectedProposalState","inputs":[{"name":"proposalId","type":"uint256","internalType":"uint256"},{"name":"current","type":"uint8","internalType":"enum IGovernor.ProposalState"},{"name":"expectedStates","type":"bytes32","internalType":"bytes32"}]},{"type":"error","name":"InvalidAccountNonce","inputs":[{"name":"account","type":"address","internalType":"address"},{"name":"currentNonce","type":"uint256","internalType":"uint256"}]},{"type":"error","name":"InvalidShortString","inputs":[]},{"type":"error","name":"SafeCastOverflowedUintDowncast","inputs":[{"name":"bits","type":"uint8","internalType":"uint8"},{"name":"value","type":"uint256","internalType":"uint256"}]},{"type":"error","name":"StringTooLong","inputs":[{"name":"str","type":"string","internalType":"string"}]}],"bytecode":{"object":"0x610180604052348015610010575f5ffd5b50604051614d90380380614d9083398101604081905261002f9161071c565b80600483600161b2fa5f6040518060400160405280600a81526020016926bca3b7bb32b93737b960b11b8152508061006b61016e60201b60201c565b610075825f610189565b61012052610084816001610189565b61014052815160208084019190912060e052815190820120610100524660a05261011060e05161010051604080517f8b73c3c69bb8fe3d512ecc4cf759cc79239f7b179b0ffacaa9a75d522b39400f60208201529081019290925260608201524660808201523060a08201525f9060c00160405160208183030381529060405280519060200120905090565b60805250503060c052600361012582826107ec565b506101319050836101bb565b61013a82610221565b610143816102c5565b5050506001600160a01b03166101605261015c81610306565b506101668161039b565b505050610942565b6040805180820190915260018152603160f81b602082015290565b5f6020835110156101a45761019d83610404565b90506101b5565b816101af84826107ec565b5060ff90505b92915050565b6008546040805165ffffffffffff928316815291831660208301527fc565b045403dc03c2eea82b81a0465edad9e2e7fc4d97e11421c209da93d7a93910160405180910390a16008805465ffffffffffff191665ffffffffffff92909216919091179055565b8063ffffffff165f0361024e5760405163f1cfbf0560e01b81525f60048201526024015b60405180910390fd5b6008546040805163ffffffff66010000000000009093048316815291831660208301527f7e3f7f0708a84de9203036abaa450dccc85ad5ff52f78c170f3edb55cf5e8828910160405180910390a16008805463ffffffff90921666010000000000000263ffffffff60301b19909216919091179055565b60075460408051918252602082018390527fccb45da8d5717e6c4544694297c4ba5cf151d455c9bb0ed4fc7a38411bc05461910160405180910390a1600755565b6064808211156103335760405163243e544560e01b81526004810183905260248101829052604401610245565b5f61033c610441565b905061035b61034961045a565b610352856104d4565b600a919061050b565b505060408051828152602081018590527f0553476bf02ef2726e8ce5ced78d63e26e602e4a2257b1f559418e24b4633997910160405180910390a1505050565b600b54604080516001600160a01b03928316815291831660208301527f08f74ea46ef7894f65eabfb5e6e695de773a000b47c529ab559178069b226401910160405180910390a1600b80546001600160a01b0319166001600160a01b0392909216919091179055565b5f5f829050601f8151111561042e578260405163305a27a960e01b815260040161024591906108a6565b8051610439826108db565b179392505050565b5f61044c600a610525565b6001600160d01b0316905090565b5f6104656101605190565b6001600160a01b03166391ddadf46040518163ffffffff1660e01b8152600401602060405180830381865afa9250505080156104be575060408051601f3d908101601f191682019092526104bb918101906108fe565b60015b6104cf576104ca61056d565b905090565b919050565b5f6001600160d01b03821115610507576040516306dfcc6560e41b815260d0600482015260248101839052604401610245565b5090565b5f80610518858585610577565b915091505b935093915050565b80545f9080156105645761054b8361053e600184610923565b5f91825260209091200190565b54660100000000000090046001600160d01b0316610566565b5f5b9392505050565b5f6104ca436106d3565b82545f9081908015610676575f6105938761053e600185610923565b805490915065ffffffffffff80821691660100000000000090046001600160d01b03169088168211156105d957604051632520601d60e01b815260040160405180910390fd5b8765ffffffffffff168265ffffffffffff160361061557825465ffffffffffff1666010000000000006001600160d01b03891602178355610668565b6040805180820190915265ffffffffffff808a1682526001600160d01b03808a1660208085019182528d54600181018f555f8f815291909120945191519092166601000000000000029216919091179101555b945085935061051d92505050565b50506040805180820190915265ffffffffffff80851682526001600160d01b0380851660208085019182528854600181018a555f8a815291822095519251909316660100000000000002919093161792019190915590508161051d565b5f65ffffffffffff821115610507576040516306dfcc6560e41b81526030600482015260248101839052604401610245565b6001600160a01b0381168114610719575f5ffd5b50565b5f5f6040838503121561072d575f5ffd5b825161073881610705565b602084015190925061074981610705565b809150509250929050565b634e487b7160e01b5f52604160045260245ffd5b600181811c9082168061077c57607f821691505b60208210810361079a57634e487b7160e01b5f52602260045260245ffd5b50919050565b601f8211156107e757805f5260205f20601f840160051c810160208510156107c55750805b601f840160051c820191505b818110156107e4575f81556001016107d1565b50505b505050565b81516001600160401b0381111561080557610805610754565b610819816108138454610768565b846107a0565b6020601f82116001811461084b575f83156108345750848201515b5f19600385901b1c1916600184901b1784556107e4565b5f84815260208120601f198516915b8281101561087a578785015182556020948501946001909201910161085a565b508482101561089757868401515f19600387901b60f8161c191681555b50505050600190811b01905550565b602081525f82518060208401528060208501604085015e5f604082850101526040601f19601f83011684010191505092915050565b8051602080830151919081101561079a575f1960209190910360031b1b16919050565b5f6020828403121561090e575f5ffd5b815165ffffffffffff81168114610566575f5ffd5b818103818111156101b557634e487b7160e01b5f52601160045260245ffd5b60805160a05160c05160e051610100516101205161014051610160516143d76109b95f395f81816109c101528181610dcd015281816110f101528181611ba50152611dff01525f611ae901525f611abd01525f612d2201525f612cfa01525f612c5501525f612c7f01525f612ca901526143d75ff3fe6080604052600436106102a8575f3560e01c80637ecebe001161016f578063bc197c81116100d8578063deaaa7cc11610092578063ece40cc11161006d578063ece40cc114610956578063f23a6e6114610975578063f8ce560a14610994578063fc0c546a146109b3575f5ffd5b8063deaaa7cc146108e5578063e540d01d14610918578063eb9019d414610937575f5ffd5b8063bc197c8114610813578063c01f9e3714610832578063c28bc2fa14610851578063c59057e414610864578063d33219b414610883578063dd4e2ba5146108a0575f5ffd5b8063a7713a7011610129578063a7713a7014610758578063a890c9101461076c578063a8f8a6681461078b578063a9a95294146107aa578063ab58fb8e146107c9578063b58131b0146107ff575f5ffd5b80637ecebe001461068157806384b0196e146106b55780638ff262e3146106dc57806391ddadf4146106fb57806397c3d334146107265780639a802a6d14610739575f5ffd5b806343859632116102115780635b8d0e0d116101cb5780635b8d0e0d146105c75780635f398a14146105e657806360c4247f1461060557806379051887146106245780637b3c71d3146106435780637d5e81e214610662575f5ffd5b806343859632146104ca578063452115d6146105125780634bf5d7e914610531578063544ffc9c1461054557806354fd4d501461057f57806356781388146105a8575f5ffd5b8063160cbed711610262578063160cbed7146104065780632656227d146104255780632d63f693146104385780632fe3e261146104575780633932abb11461048a5780633e4f49e61461049e575f5ffd5b806301ffc9a7146102e357806302a251a31461031757806306f3f9e61461034257806306fdde0314610361578063143489d014610382578063150b7a02146103ce575f5ffd5b366102df57306102b66109e5565b6001600160a01b0316146102dd57604051637485328f60e11b815260040160405180910390fd5b005b5f5ffd5b3480156102ee575f5ffd5b506103026102fd3660046133bc565b6109fd565b60405190151581526020015b60405180910390f35b348015610322575f5ffd5b50600854600160301b900463ffffffff165b60405190815260200161030e565b34801561034d575f5ffd5b506102dd61035c3660046133e3565b610a0d565b34801561036c575f5ffd5b50610375610a21565b60405161030e9190613428565b34801561038d575f5ffd5b506103b661039c3660046133e3565b5f908152600460205260409020546001600160a01b031690565b6040516001600160a01b03909116815260200161030e565b3480156103d9575f5ffd5b506103ed6103e8366004613511565b610ab1565b6040516001600160e01b0319909116815260200161030e565b348015610411575f5ffd5b506103346104203660046136d7565b610af3565b6103346104333660046136d7565b610bbf565b348015610443575f5ffd5b506103346104523660046133e3565b610d27565b348015610462575f5ffd5b506103347f3e83946653575f9a39005e1545185629e92736b7528ab20ca3816f315424a81181565b348015610495575f5ffd5b50610334610d47565b3480156104a9575f5ffd5b506104bd6104b83660046133e3565b610d59565b60405161030e919061379e565b3480156104d5575f5ffd5b506103026104e43660046137ac565b5f8281526009602090815260408083206001600160a01b038516845260030190915290205460ff1692915050565b34801561051d575f5ffd5b5061033461052c3660046136d7565b610d63565b34801561053c575f5ffd5b50610375610dc9565b348015610550575f5ffd5b5061056461055f3660046133e3565b610e89565b6040805193845260208401929092529082015260600161030e565b34801561058a575f5ffd5b506040805180820190915260018152603160f81b6020820152610375565b3480156105b3575f5ffd5b506103346105c23660046137ea565b610eae565b3480156105d2575f5ffd5b506103346105e1366004613858565b610ed5565b3480156105f1575f5ffd5b50610334610600366004613914565b610f92565b348015610610575f5ffd5b5061033461061f3660046133e3565b610fda565b34801561062f575f5ffd5b506102dd61063e3660046139a8565b610fe6565b34801561064e575f5ffd5b5061033461065d3660046139c3565b610ff7565b34801561066d575f5ffd5b5061033461067c366004613a18565b611047565b34801561068c575f5ffd5b5061033461069b366004613ad4565b6001600160a01b03165f9081526002602052604090205490565b3480156106c0575f5ffd5b506106c961105d565b60405161030e9796959493929190613b29565b3480156106e7575f5ffd5b506103346106f6366004613b98565b61109f565b348015610706575f5ffd5b5061070f6110ee565b60405165ffffffffffff909116815260200161030e565b348015610731575f5ffd5b506064610334565b348015610744575f5ffd5b50610334610753366004613be5565b611175565b348015610763575f5ffd5b5061033461118b565b348015610777575f5ffd5b506102dd610786366004613ad4565b6111a4565b348015610796575f5ffd5b506103346107a53660046136d7565b6111b5565b3480156107b5575f5ffd5b506103026107c43660046133e3565b6111c2565b3480156107d4575f5ffd5b506103346107e33660046133e3565b5f9081526004602052604090206001015465ffffffffffff1690565b34801561080a575f5ffd5b506103346111ca565b34801561081e575f5ffd5b506103ed61082d366004613c39565b6111d4565b34801561083d575f5ffd5b5061033461084c3660046133e3565b611217565b6102dd61085f366004613cd0565b611259565b34801561086f575f5ffd5b5061033461087e3660046136d7565b6112d5565b34801561088e575f5ffd5b50600b546001600160a01b03166103b6565b3480156108ab575f5ffd5b506040805180820190915260208082527f737570706f72743d627261766f2671756f72756d3d666f722c6162737461696e90820152610375565b3480156108f0575f5ffd5b506103347ff2aad550cf55f045cb27e9c559f9889fdfb6e6cdaa032301d6ea397784ae51d781565b348015610923575f5ffd5b506102dd610932366004613d0f565b61130e565b348015610942575f5ffd5b50610334610951366004613d32565b61131f565b348015610961575f5ffd5b506102dd6109703660046133e3565b61133e565b348015610980575f5ffd5b506103ed61098f366004613d5c565b61134f565b34801561099f575f5ffd5b506103346109ae3660046133e3565b611392565b3480156109be575f5ffd5b507f00000000000000000000000000000000000000000000000000000000000000006103b6565b5f6109f8600b546001600160a01b031690565b905090565b5f610a078261139c565b92915050565b610a15611406565b610a1e8161147f565b50565b606060038054610a3090613db3565b80601f0160208091040260200160405190810160405280929190818152602001828054610a5c90613db3565b8015610aa75780601f10610a7e57610100808354040283529160200191610aa7565b820191905f5260205f20905b815481529060010190602001808311610a8a57829003601f168201915b5050505050905090565b5f30610abb6109e5565b6001600160a01b031614610ae257604051637485328f60e11b815260040160405180910390fd5b50630a85bd0160e11b949350505050565b5f5f610b01868686866111b5565b9050610b1681610b116004611514565b611536565b505f610b258288888888611573565b905065ffffffffffff811615610b9c575f82815260046020908152604091829020600101805465ffffffffffff191665ffffffffffff85169081179091558251858152918201527f9a2e42fd6722813d69113e7d0079d3d940171428df7373df9c7f7617cfda2892910160405180910390a1610bb5565b604051634844252360e11b815260040160405180910390fd5b5095945050505050565b5f5f610bcd868686866111b5565b9050610bed81610bdd6005611514565b610be76004611514565b17611536565b505f818152600460205260409020805460ff60f01b1916600160f01b17905530610c156109e5565b6001600160a01b031614610c9e575f5b8651811015610c9c57306001600160a01b0316878281518110610c4a57610c4a613deb565b60200260200101516001600160a01b031603610c9457610c94858281518110610c7557610c75613deb565b602002602001015180519060200120600561158190919063ffffffff16565b600101610c25565b505b610cab81878787876115e2565b30610cb46109e5565b6001600160a01b031614158015610ce057506005546001600160801b03808216600160801b9092041614155b15610cea575f6005555b6040518181527f712ae1383f79ac853f8d882153778e0260ef8f03b504e2866e0593e04d2b291f906020015b60405180910390a195945050505050565b5f90815260046020526040902054600160a01b900465ffffffffffff1690565b5f6109f860085465ffffffffffff1690565b5f610a07826115f6565b5f5f610d71868686866111b5565b905033610d7e828261172f565b610db257604051638fe5d8a960e01b8152600481018390526001600160a01b03821660248201526044015b60405180910390fd5b610dbe87878787611774565b979650505050505050565b60607f00000000000000000000000000000000000000000000000000000000000000006001600160a01b0316634bf5d7e96040518163ffffffff1660e01b81526004015f60405180830381865afa925050508015610e4857506040513d5f823e601f3d908101601f19168201604052610e459190810190613dff565b60015b610e84575060408051808201909152601d81527f6d6f64653d626c6f636b6e756d6265722666726f6d3d64656661756c74000000602082015290565b919050565b5f818152600960205260409020805460018201546002909201549091905b9193909250565b5f80339050610ecd84828560405180602001604052805f815250611781565b949350505050565b5f610f1b88888888888080601f0160208091040260200160405190810160405280939291908181526020018383808284375f920191909152508a92508991506117a29050565b610f43576040516394ab6c0760e01b81526001600160a01b0387166004820152602401610da9565b610f8688878988888080601f0160208091040260200160405190810160405280939291908181526020018383808284375f920191909152508a925061186f915050565b98975050505050505050565b5f80339050610dbe87828888888080601f0160208091040260200160405190810160405280939291908181526020018383808284375f920191909152508a925061186f915050565b5f610a07600a8361194d565b610fee611406565b610a1e8161199a565b5f8033905061103d86828787878080601f0160208091040260200160405190810160405280939291908181526020018383808284375f9201919091525061178192505050565b9695505050505050565b5f61105485858585611a00565b95945050505050565b5f6060805f5f5f606061106e611ab6565b611076611ae2565b604080515f80825260208201909252600f60f81b9b939a50919850469750309650945092509050565b5f6110ac85858585611b0f565b6110d4576040516394ab6c0760e01b81526001600160a01b0384166004820152602401610da9565b61105485848660405180602001604052805f815250611781565b5f7f00000000000000000000000000000000000000000000000000000000000000006001600160a01b03166391ddadf46040518163ffffffff1660e01b8152600401602060405180830381865afa925050508015611169575060408051601f3d908101601f1916820190925261116691810190613e73565b60015b610e84576109f8611b98565b5f611181848484611ba2565b90505b9392505050565b5f611196600a611c35565b6001600160d01b0316905090565b6111ac611406565b610a1e81611c79565b5f611054858585856112d5565b5f6001610a07565b5f6109f860075490565b5f306111de6109e5565b6001600160a01b03161461120557604051637485328f60e11b815260040160405180910390fd5b5063bc197c8160e01b95945050505050565b5f8181526004602052604081205461124b90600160d01b810463ffffffff1690600160a01b900465ffffffffffff16613ea2565b65ffffffffffff1692915050565b611261611406565b5f5f856001600160a01b031685858560405161127e929190613ec0565b5f6040518083038185875af1925050503d805f81146112b8576040519150601f19603f3d011682016040523d82523d5f602084013e6112bd565b606091505b50915091506112cc8282611ce2565b50505050505050565b5f848484846040516020016112ed9493929190613f62565b60408051601f19818403018152919052805160209091012095945050505050565b611316611406565b610a1e81611cfe565b5f611184838361133960408051602081019091525f815290565b611ba2565b611346611406565b610a1e81611d9a565b5f306113596109e5565b6001600160a01b03161461138057604051637485328f60e11b815260040160405180910390fd5b5063f23a6e6160e01b95945050505050565b5f610a0782611ddb565b5f6001600160e01b031982166366defe7760e11b14806113cc57506001600160e01b031982166332a2ad4360e11b145b806113e757506001600160e01b03198216630271189760e51b145b80610a0757506301ffc9a760e01b6001600160e01b0319831614610a07565b3361140f6109e5565b6001600160a01b031614611438576040516347096e4760e01b8152336004820152602401610da9565b306114416109e5565b6001600160a01b03161461147d575f8036604051611460929190613ec0565b604051809103902090505b806114766005611e78565b0361146b57505b565b6064808211156114ac5760405163243e544560e01b81526004810183905260248101829052604401610da9565b5f6114b561118b565b90506114d46114c26110ee565b6114cb85611ee5565b600a9190611f1c565b505060408051828152602081018590527f0553476bf02ef2726e8ce5ced78d63e26e602e4a2257b1f559418e24b4633997910160405180910390a1505050565b5f8160078111156115275761152761376a565b600160ff919091161b92915050565b5f5f61154184610d59565b90505f8361154e83611514565b1603611184578381846040516331b75e4d60e01b8152600401610da993929190613fac565b5f61103d8686868686611f36565b81546001600160801b03600160801b8204811691811660018301909116036115ad576115ad60416120c7565b6001600160801b038082165f90815260018086016020526040909120939093558354919092018216600160801b029116179055565b6115ef85858585856120d8565b5050505050565b5f5f61160183612168565b905060058160078111156116175761161761376a565b146116225792915050565b5f838152600c60205260409081902054600b549151632c258a9f60e11b81526004810182905290916001600160a01b03169063584b153e90602401602060405180830381865afa158015611678573d5f5f3e3d5ffd5b505050506040513d601f19601f8201168201806040525081019061169c9190613fce565b156116ab575060059392505050565b600b54604051632ab0f52960e01b8152600481018390526001600160a01b0390911690632ab0f52990602401602060405180830381865afa1580156116f2573d5f5f3e3d5ffd5b505050506040513d601f19601f820116820180604052508101906117169190613fce565b15611725575060079392505050565b5060029392505050565b5f8061173a84610d59565b600781111561174b5761174b61376a565b1480156111845750505f91825260046020526040909120546001600160a01b0391821691161490565b5f61105485858585612299565b5f6110548585858561179d60408051602081019091525f815290565b61186f565b5f610dbe856118697f3e83946653575f9a39005e1545185629e92736b7528ab20ca3816f315424a8118a8a8a6117f48c6001600160a01b03165f90815260026020526040902080546001810190915590565b8b516020808e01919091208c518d83012060405161184e98979695949301968752602087019590955260ff9390931660408601526001600160a01b03919091166060850152608084015260a083015260c082015260e00190565b60405160208183030381529060405280519060200120612330565b8461235c565b5f61187e86610b116001611514565b505f6118938661188d89610d27565b85611ba2565b90505f6118a388888885886123cc565b905083515f036118f957866001600160a01b03167fb8e138887d0aa13bab447e82de9d5c1777041ecd21ca36ba824ff1e6c07ddda4898884896040516118ec9493929190613fed565b60405180910390a2610dbe565b866001600160a01b03167fe2babfbac5889a709b63bb7f598b324e08bc5a4fb9ec647fb3cbc9ec07eb8712898884898960405161193a959493929190614014565b60405180910390a2979650505050505050565b5f5f5f611959856124c8565b9250925050838265ffffffffffff1611156119865761198161197a85612520565b8690612552565b611988565b805b6001600160d01b031695945050505050565b6008546040805165ffffffffffff928316815291831660208301527fc565b045403dc03c2eea82b81a0465edad9e2e7fc4d97e11421c209da93d7a93910160405180910390a16008805465ffffffffffff191665ffffffffffff92909216919091179055565b5f33611a0c81846125f4565b611a345760405163d9b3955760e01b81526001600160a01b0382166004820152602401610da9565b5f611a3d6111ca565b90508015611aa9575f611a6b836001611a546110ee565b611a5e919061404d565b65ffffffffffff1661131f565b905081811015611aa757604051636121770b60e11b81526001600160a01b03841660048201526024810182905260448101839052606401610da9565b505b610dbe8787878786612679565b60606109f87f00000000000000000000000000000000000000000000000000000000000000005f612893565b60606109f87f00000000000000000000000000000000000000000000000000000000000000006001612893565b5f611054836118697ff2aad550cf55f045cb27e9c559f9889fdfb6e6cdaa032301d6ea397784ae51d7888888611b618a6001600160a01b03165f90815260026020526040902080546001810190915590565b60408051602081019690965285019390935260ff90911660608401526001600160a01b0316608083015260a082015260c00161184e565b5f6109f843612520565b5f7f0000000000000000000000000000000000000000000000000000000000000000604051630748d63560e31b81526001600160a01b038681166004830152602482018690529190911690633a46b1a890604401602060405180830381865afa158015611c11573d5f5f3e3d5ffd5b505050506040513d601f19601f82011682018060405250810190611181919061406b565b80545f908015611c7157611c5b83611c4e600184614082565b5f91825260209091200190565b54600160301b90046001600160d01b0316611184565b5f9392505050565b600b54604080516001600160a01b03928316815291831660208301527f08f74ea46ef7894f65eabfb5e6e695de773a000b47c529ab559178069b226401910160405180910390a1600b80546001600160a01b0319166001600160a01b0392909216919091179055565b606082611cf757611cf28261293c565b610a07565b5080610a07565b8063ffffffff165f03611d265760405163f1cfbf0560e01b81525f6004820152602401610da9565b6008546040805163ffffffff600160301b9093048316815291831660208301527f7e3f7f0708a84de9203036abaa450dccc85ad5ff52f78c170f3edb55cf5e8828910160405180910390a16008805463ffffffff909216600160301b0269ffffffff00000000000019909216919091179055565b60075460408051918252602082018390527fccb45da8d5717e6c4544694297c4ba5cf151d455c9bb0ed4fc7a38411bc05461910160405180910390a1600755565b604051632394e7a360e21b8152600481018290525f90610a07906001600160a01b037f00000000000000000000000000000000000000000000000000000000000000001690638e539e8c90602401602060405180830381865afa158015611e44573d5f5f3e3d5ffd5b505050506040513d601f19601f82011682018060405250810190611e68919061406b565b611e7184610fda565b6064612964565b80545f906001600160801b0380821691600160801b9004168103611ea057611ea060316120c7565b6001600160801b038181165f908152600185810160205260408220805492905585546fffffffffffffffffffffffffffffffff19169301909116919091179092555090565b5f6001600160d01b03821115611f18576040516306dfcc6560e41b815260d0600482015260248101839052604401610da9565b5090565b5f80611f29858585612a14565b915091505b935093915050565b5f5f600b5f9054906101000a90046001600160a01b03166001600160a01b031663f27a0c926040518163ffffffff1660e01b8152600401602060405180830381865afa158015611f88573d5f5f3e3d5ffd5b505050506040513d601f19601f82011682018060405250810190611fac919061406b565b90505f3060601b6bffffffffffffffffffffffff19168418600b5460405163b1c5f42760e01b81529192506001600160a01b03169063b1c5f42790611ffd908a908a908a905f908890600401614095565b602060405180830381865afa158015612018573d5f5f3e3d5ffd5b505050506040513d601f19601f8201168201806040525081019061203c919061406b565b5f898152600c602052604080822092909255600b5491516308f2a0bb60e41b81526001600160a01b0390921691638f2a0bb091612086918b918b918b919088908a906004016140e2565b5f604051808303815f87803b15801561209d575f5ffd5b505af11580156120af573d5f5f3e3d5ffd5b50505050610f8682426120c29190614139565b612520565b634e487b715f52806020526024601cfd5b600b546001600160a01b031663e38335e5348686865f3060601b6bffffffffffffffffffffffff191688186040518763ffffffff1660e01b8152600401612123959493929190614095565b5f604051808303818588803b15801561213a575f5ffd5b505af115801561214c573d5f5f3e3d5ffd5b5050505f9687525050600c602052505060408320929092555050565b5f818152600460205260408120805460ff600160f01b8204811691600160f81b900416811561219c57506007949350505050565b80156121ad57506002949350505050565b5f6121b786610d27565b9050805f036121dc57604051636ad0607560e01b815260048101879052602401610da9565b5f6121e56110ee565b65ffffffffffff16905080821061220257505f9695505050505050565b5f61220c88611217565b905081811061222357506001979650505050505050565b61222c88612b64565b158061224b57505f888152600960205260409020805460019091015411155b1561225e57506003979650505050505050565b5f8881526004602052604090206001015465ffffffffffff165f0361228b57506004979650505050505050565b506005979650505050505050565b5f5f6122a786868686612b9a565b5f818152600c60205260409020549091508015610bb557600b5460405163c4d252f560e01b8152600481018390526001600160a01b039091169063c4d252f5906024015f604051808303815f87803b158015612301575f5ffd5b505af1158015612313573d5f5f3e3d5ffd5b5050505f838152600c602052604081205550509050949350505050565b5f610a0761233c612c49565b8360405161190160f01b8152600281019290925260228201526042902090565b5f836001600160a01b03163b5f036123ba575f5f61237a8585612d72565b5090925090505f8160038111156123935761239361376a565b1480156123b15750856001600160a01b0316826001600160a01b0316145b92505050611184565b6123c5848484612dbb565b9050611184565b5f8581526009602090815260408083206001600160a01b03881684526003810190925282205460ff161561241e576040516371c6af4960e01b81526001600160a01b0387166004820152602401610da9565b6001600160a01b0386165f9081526003820160205260409020805460ff1916600117905560ff85166124675783815f015f82825461245c9190614139565b909155506124bd9050565b5f1960ff8616016124855783816001015f82825461245c9190614139565b60011960ff8616016124a45783816002015f82825461245c9190614139565b6040516303599be160e11b815260040160405180910390fd5b509195945050505050565b80545f90819081908082036124e6575f5f5f93509350935050610ea7565b5f6124f686611c4e600185614082565b546001955065ffffffffffff81169450600160301b90046001600160d01b03169250610ea7915050565b5f65ffffffffffff821115611f18576040516306dfcc6560e41b81526030600482015260248101839052604401610da9565b81545f90818160058111156125ae575f61256b84612e91565b6125759085614082565b5f8881526020902090915081015465ffffffffffff908116908716101561259e578091506125ac565b6125a9816001614139565b92505b505b5f6125bb87878585612fe9565b905080156125e8576125d287611c4e600184614082565b54600160301b90046001600160d01b0316610dbe565b5f979650505050505050565b80515f90603481101561260b576001915050610a07565b60131981840101516001600160b01b03198116692370726f706f7365723d60b01b1461263c57600192505050610a07565b5f5f61264c86602a860386613048565b91509150811580610dbe5750866001600160a01b0316816001600160a01b03161494505050505092915050565b5f61268d86868686805190602001206111b5565b9050845186511415806126a257508351865114155b806126ac57508551155b156126e157855184518651604051630447b05d60e41b8152600481019390935260248301919091526044820152606401610da9565b5f81815260046020526040902054600160a01b900465ffffffffffff161561272a578061270d82610d59565b6040516331b75e4d60e01b8152610da99291905f90600401613fac565b5f612733610d47565b61273b6110ee565b65ffffffffffff1661274d9190614139565b90505f61276760085463ffffffff600160301b9091041690565b5f84815260046020526040902080546001600160a01b0319166001600160a01b03871617815590915061279983612520565b815465ffffffffffff91909116600160a01b0265ffffffffffff60a01b199091161781556127c6826130f1565b815463ffffffff91909116600160d01b0263ffffffff60d01b1990911617815588517f7d84a6263ae0d98d3329bd7b46bb4e8d6f98cd35a7adb45c274c8b7fd5ebd5e090859087908c908c906001600160401b038111156128295761282961344e565b60405190808252806020026020018201604052801561285c57816020015b60608152602001906001900390816128475790505b508c896128698a82614139565b8e60405161287f9998979695949392919061414c565b60405180910390a150505095945050505050565b606060ff83146128ad576128a683613121565b9050610a07565b8180546128b990613db3565b80601f01602080910402602001604051908101604052809291908181526020018280546128e590613db3565b80156129305780601f1061290757610100808354040283529160200191612930565b820191905f5260205f20905b81548152906001019060200180831161291357829003601f168201915b50505050509050610a07565b80511561294b57805160208201fd5b60405163d6bda27560e01b815260040160405180910390fd5b5f5f5f612971868661315e565b91509150815f036129955783818161298b5761298b614227565b0492505050611184565b8184116129ac576129ac60038515026011186120c7565b5f848688095f868103871696879004966002600389028118808a02820302808a02820302808a02820302808a02820302808a02820302808a02909103029181900381900460010185841190960395909502919093039390930492909217029150509392505050565b82545f9081908015612b0a575f612a3087611c4e600185614082565b805490915065ffffffffffff80821691600160301b90046001600160d01b0316908816821115612a7357604051632520601d60e01b815260040160405180910390fd5b8765ffffffffffff168265ffffffffffff1603612aac57825465ffffffffffff16600160301b6001600160d01b03891602178355612afc565b6040805180820190915265ffffffffffff808a1682526001600160d01b03808a1660208085019182528d54600181018f555f8f81529190912094519151909216600160301b029216919091179101555b9450859350611f2e92505050565b50506040805180820190915265ffffffffffff80851682526001600160d01b0380851660208085019182528854600181018a555f8a815291822095519251909316600160301b029190931617920191909155905081611f2e565b5f81815260096020526040812060028101546001820154612b859190614139565b612b916109ae85610d27565b11159392505050565b5f5f612ba8868686866111b5565b9050612bf681612bb86007611514565b612bc26006611514565b612bcc6002611514565b6001612bd960078261423b565b612be490600261432f565b612bee9190614082565b181818611536565b505f818152600460205260409081902080546001600160f81b0316600160f81b179055517f789cf55be980739dad1d0699b93b58e806b51c9d96619bfa8fe0a28abaa7b30c90610d169083815260200190565b5f306001600160a01b037f000000000000000000000000000000000000000000000000000000000000000016148015612ca157507f000000000000000000000000000000000000000000000000000000000000000046145b15612ccb57507f000000000000000000000000000000000000000000000000000000000000000090565b6109f8604080517f8b73c3c69bb8fe3d512ecc4cf759cc79239f7b179b0ffacaa9a75d522b39400f60208201527f0000000000000000000000000000000000000000000000000000000000000000918101919091527f000000000000000000000000000000000000000000000000000000000000000060608201524660808201523060a08201525f9060c00160405160208183030381529060405280519060200120905090565b5f5f5f8351604103612da9576020840151604085015160608601515f1a612d9b8882858561317a565b955095509550505050612db4565b505081515f91506002905b9250925092565b5f5f5f856001600160a01b03168585604051602401612ddb92919061433d565b60408051601f198184030181529181526020820180516001600160e01b0316630b135d3f60e11b17905251612e109190614355565b5f60405180830381855afa9150503d805f8114612e48576040519150601f19603f3d011682016040523d82523d5f602084013e612e4d565b606091505b5091509150818015612e6157506020815110155b801561103d57508051630b135d3f60e11b90612e86908301602090810190840161406b565b149695505050505050565b5f60018211612e9e575090565b816001600160801b8210612eb75760809190911c9060401b5b680100000000000000008210612ed25760409190911c9060201b5b6401000000008210612ee95760209190911c9060101b5b620100008210612efe5760109190911c9060081b5b6101008210612f125760089190911c9060041b5b60108210612f255760049190911c9060021b5b60048210612f315760011b5b600302600190811c90818581612f4957612f49614227565b048201901c90506001818581612f6157612f61614227565b048201901c90506001818581612f7957612f79614227565b048201901c90506001818581612f9157612f91614227565b048201901c90506001818581612fa957612fa9614227565b048201901c90506001818581612fc157612fc1614227565b048201901c9050612fe0818581612fda57612fda614227565b04821190565b90039392505050565b5f5b81831015613040575f612ffe8484613242565b5f8781526020902090915065ffffffffffff86169082015465ffffffffffff16111561302c5780925061303a565b613037816001614139565b93505b50612feb565b509392505050565b5f5f845183118061305857508284115b1561306757505f905080611f2e565b5f613073856001614139565b8411801561309b575061060f60f31b61308f8787016020015190565b6001600160f01b031916145b90505f6130ab821515600261436b565b6130b6906028614139565b9050806130c38787614082565b036130e4575f5f6130d589898961325c565b9096509450611f2e9350505050565b5f5f935093505050611f2e565b5f63ffffffff821115611f18576040516306dfcc6560e41b81526020600482015260248101839052604401610da9565b60605f61312d8361331d565b6040805160208082528183019092529192505f91906020820181803683375050509182525060208101929092525090565b5f805f1983850993909202808410938190039390930393915050565b5f80807f7fffffffffffffffffffffffffffffff5d576e7357a4501ddfe92f46681b20a08411156131b357505f91506003905082613238565b604080515f808252602082018084528a905260ff891692820192909252606081018790526080810186905260019060a0016020604051602081039080840390855afa158015613204573d5f5f3e3d5ffd5b5050604051601f1901519150506001600160a01b03811661322f57505f925060019150829050613238565b92505f91508190505b9450945094915050565b5f6132506002848418614382565b61118490848416614139565b5f80848161326b866001614139565b85118015613293575061060f60f31b6132878388016020015190565b6001600160f01b031916145b90505f6132a3821515600261436b565b90505f806132b1838a614139565b90505b8781101561330c575f6132d26132cd8784016020015190565b613344565b9050600f8160ff1611156132f1575f5f97509750505050505050611f2e565b6132fc60108461436b565b60ff9091160191506001016132b4565b506001999098509650505050505050565b5f60ff8216601f811115610a0757604051632cd44ac360e21b815260040160405180910390fd5b5f60f882901c602f8111801561335d5750603a8160ff16105b1561336b57602f1901610a07565b60608160ff16118015613381575060678160ff16105b1561338f5760561901610a07565b60408160ff161180156133a5575060478160ff16105b156133b35760361901610a07565b5060ff92915050565b5f602082840312156133cc575f5ffd5b81356001600160e01b031981168114611184575f5ffd5b5f602082840312156133f3575f5ffd5b5035919050565b5f81518084528060208401602086015e5f602082860101526020601f19601f83011685010191505092915050565b602081525f61118460208301846133fa565b6001600160a01b0381168114610a1e575f5ffd5b634e487b7160e01b5f52604160045260245ffd5b604051601f8201601f191681016001600160401b038111828210171561348a5761348a61344e565b604052919050565b5f6001600160401b038211156134aa576134aa61344e565b50601f01601f191660200190565b5f6134ca6134c584613492565b613462565b90508281528383830111156134dd575f5ffd5b828260208301375f602084830101529392505050565b5f82601f830112613502575f5ffd5b611184838335602085016134b8565b5f5f5f5f60808587031215613524575f5ffd5b843561352f8161343a565b9350602085013561353f8161343a565b92506040850135915060608501356001600160401b03811115613560575f5ffd5b61356c878288016134f3565b91505092959194509250565b5f6001600160401b038211156135905761359061344e565b5060051b60200190565b5f82601f8301126135a9575f5ffd5b81356135b76134c582613578565b8082825260208201915060208360051b8601019250858311156135d8575f5ffd5b602085015b83811015610bb55780356135f08161343a565b8352602092830192016135dd565b5f82601f83011261360d575f5ffd5b813561361b6134c582613578565b8082825260208201915060208360051b86010192508583111561363c575f5ffd5b602085015b83811015610bb5578035835260209283019201613641565b5f82601f830112613668575f5ffd5b81356136766134c582613578565b8082825260208201915060208360051b860101925085831115613697575f5ffd5b602085015b83811015610bb55780356001600160401b038111156136b9575f5ffd5b6136c8886020838a01016134f3565b8452506020928301920161369c565b5f5f5f5f608085870312156136ea575f5ffd5b84356001600160401b038111156136ff575f5ffd5b61370b8782880161359a565b94505060208501356001600160401b03811115613726575f5ffd5b613732878288016135fe565b93505060408501356001600160401b0381111561374d575f5ffd5b61375987828801613659565b949793965093946060013593505050565b634e487b7160e01b5f52602160045260245ffd5b6008811061379a57634e487b7160e01b5f52602160045260245ffd5b9052565b60208101610a07828461377e565b5f5f604083850312156137bd575f5ffd5b8235915060208301356137cf8161343a565b809150509250929050565b803560ff81168114610e84575f5ffd5b5f5f604083850312156137fb575f5ffd5b8235915061380b602084016137da565b90509250929050565b5f5f83601f840112613824575f5ffd5b5081356001600160401b0381111561383a575f5ffd5b602083019150836020828501011115613851575f5ffd5b9250929050565b5f5f5f5f5f5f5f60c0888a03121561386e575f5ffd5b8735965061387e602089016137da565b9550604088013561388e8161343a565b945060608801356001600160401b038111156138a8575f5ffd5b6138b48a828b01613814565b90955093505060808801356001600160401b038111156138d2575f5ffd5b6138de8a828b016134f3565b92505060a08801356001600160401b038111156138f9575f5ffd5b6139058a828b016134f3565b91505092959891949750929550565b5f5f5f5f5f60808688031215613928575f5ffd5b85359450613938602087016137da565b935060408601356001600160401b03811115613952575f5ffd5b61395e88828901613814565b90945092505060608601356001600160401b0381111561397c575f5ffd5b613988888289016134f3565b9150509295509295909350565b65ffffffffffff81168114610a1e575f5ffd5b5f602082840312156139b8575f5ffd5b813561118481613995565b5f5f5f5f606085870312156139d6575f5ffd5b843593506139e6602086016137da565b925060408501356001600160401b03811115613a00575f5ffd5b613a0c87828801613814565b95989497509550505050565b5f5f5f5f60808587031215613a2b575f5ffd5b84356001600160401b03811115613a40575f5ffd5b613a4c8782880161359a565b94505060208501356001600160401b03811115613a67575f5ffd5b613a73878288016135fe565b93505060408501356001600160401b03811115613a8e575f5ffd5b613a9a87828801613659565b92505060608501356001600160401b03811115613ab5575f5ffd5b8501601f81018713613ac5575f5ffd5b61356c878235602084016134b8565b5f60208284031215613ae4575f5ffd5b81356111848161343a565b5f8151808452602084019350602083015f5b82811015613b1f578151865260209586019590910190600101613b01565b5093949350505050565b60ff60f81b8816815260e060208201525f613b4760e08301896133fa565b8281036040840152613b5981896133fa565b606084018890526001600160a01b038716608085015260a0840186905283810360c08501529050613b8a8185613aef565b9a9950505050505050505050565b5f5f5f5f60808587031215613bab575f5ffd5b84359350613bbb602086016137da565b92506040850135613bcb8161343a565b915060608501356001600160401b03811115613560575f5ffd5b5f5f5f60608486031215613bf7575f5ffd5b8335613c028161343a565b92506020840135915060408401356001600160401b03811115613c23575f5ffd5b613c2f868287016134f3565b9150509250925092565b5f5f5f5f5f60a08688031215613c4d575f5ffd5b8535613c588161343a565b94506020860135613c688161343a565b935060408601356001600160401b03811115613c82575f5ffd5b613c8e888289016135fe565b93505060608601356001600160401b03811115613ca9575f5ffd5b613cb5888289016135fe565b92505060808601356001600160401b0381111561397c575f5ffd5b5f5f5f5f60608587031215613ce3575f5ffd5b8435613cee8161343a565b93506020850135925060408501356001600160401b03811115613a00575f5ffd5b5f60208284031215613d1f575f5ffd5b813563ffffffff81168114611184575f5ffd5b5f5f60408385031215613d43575f5ffd5b8235613d4e8161343a565b946020939093013593505050565b5f5f5f5f5f60a08688031215613d70575f5ffd5b8535613d7b8161343a565b94506020860135613d8b8161343a565b9350604086013592506060860135915060808601356001600160401b0381111561397c575f5ffd5b600181811c90821680613dc757607f821691505b602082108103613de557634e487b7160e01b5f52602260045260245ffd5b50919050565b634e487b7160e01b5f52603260045260245ffd5b5f60208284031215613e0f575f5ffd5b81516001600160401b03811115613e24575f5ffd5b8201601f81018413613e34575f5ffd5b8051613e426134c582613492565b818152856020838501011115613e56575f5ffd5b8160208401602083015e5f91810160200191909152949350505050565b5f60208284031215613e83575f5ffd5b815161118481613995565b634e487b7160e01b5f52601160045260245ffd5b65ffffffffffff8181168382160190811115610a0757610a07613e8e565b818382375f9101908152919050565b5f8151808452602084019350602083015f5b82811015613b1f5781516001600160a01b0316865260209586019590910190600101613ee1565b5f82825180855260208501945060208160051b830101602085015f5b83811015613f5657601f19858403018852613f408383516133fa565b6020988901989093509190910190600101613f24565b50909695505050505050565b608081525f613f746080830187613ecf565b8281036020840152613f868187613aef565b90508281036040840152613f9a8186613f08565b91505082606083015295945050505050565b83815260608101613fc0602083018561377e565b826040830152949350505050565b5f60208284031215613fde575f5ffd5b81518015158114611184575f5ffd5b84815260ff84166020820152826040820152608060608201525f61103d60808301846133fa565b85815260ff8516602082015283604082015260a060608201525f61403b60a08301856133fa565b8281036080840152610f8681856133fa565b65ffffffffffff8281168282160390811115610a0757610a07613e8e565b5f6020828403121561407b575f5ffd5b5051919050565b81810381811115610a0757610a07613e8e565b60a081525f6140a760a0830188613ecf565b82810360208401526140b98188613aef565b905082810360408401526140cd8187613f08565b60608401959095525050608001529392505050565b60c081525f6140f460c0830189613ecf565b82810360208401526141068189613aef565b9050828103604084015261411a8188613f08565b60608401969096525050608081019290925260a0909101529392505050565b80820180821115610a0757610a07613e8e565b8981526001600160a01b0389166020820152610120604082018190525f906141769083018a613ecf565b8281036060840152614188818a613aef565b9050828103608084015280885180835260208301915060208160051b84010160208b015f5b838110156141df57601f198684030185526141c98383516133fa565b60209586019590935091909101906001016141ad565b505085810360a08701526141f3818b613f08565b93505050508560c08401528460e084015282810361010084015261421781856133fa565b9c9b505050505050505050505050565b634e487b7160e01b5f52601260045260245ffd5b60ff8181168382160190811115610a0757610a07613e8e565b6001815b6001841115611f2e5780850481111561427357614273613e8e565b600184161561428157908102905b60019390931c928002614258565b5f8261429d57506001610a07565b816142a957505f610a07565b81600181146142bf57600281146142c9576142e5565b6001915050610a07565b60ff8411156142da576142da613e8e565b50506001821b610a07565b5060208310610133831016604e8410600b8410161715614308575081810a610a07565b6143145f198484614254565b805f190482111561432757614327613e8e565b029392505050565b5f61118460ff84168361428f565b828152604060208201525f61118160408301846133fa565b5f82518060208501845e5f920191825250919050565b8082028115828204841417610a0757610a07613e8e565b5f8261439c57634e487b7160e01b5f52601260045260245ffd5b50049056fea26469706673582212206feb6fe189dedddb6609c8bd8fe0600a5f1f9a2a41f0bc3c30ab6a96fa27785d64736f6c634300081e0033","linkReferences":{}},"methodIdentifiers":{"BALLOT_TYPEHASH()":"deaaa7cc","CLOCK_MODE()":"4bf5d7e9","COUNTING_MODE()":"dd4e2ba5","EXTENDED_BALLOT_TYPEHASH()":"2fe3e261","cancel(address[],uint256[],bytes[],bytes32)":"452115d6","castVote(uint256,uint8)":"56781388","castVoteBySig(uint256,uint8,address,bytes)":"8ff262e3","castVoteWithReason(uint256,uint8,string)":"7b3c71d3","castVoteWithReasonAndParams(uint256,uint8,string,bytes)":"5f398a14","castVoteWithReasonAndParamsBySig(uint256,uint8,address,string,bytes,bytes)":"5b8d0e0d","clock()":"91ddadf4","eip712Domain()":"84b0196e","execute(address[],uint256[],bytes[],bytes32)":"2656227d","getProposalId(address[],uint256[],bytes[],bytes32)":"a8f8a668","getVotes(address,uint256)":"eb9019d4","getVotesWithParams(address,uint256,bytes)":"9a802a6d","hasVoted(uint256,address)":"43859632","hashProposal(address[],uint256[],bytes[],bytes32)":"c59057e4","name()":"06fdde03","nonces(address)":"7ecebe00","onERC1155BatchReceived(address,address,uint256[],uint256[],bytes)":"bc197c81","onERC1155Received(address,address,uint256,uint256,bytes)":"f23a6e61","onERC721Received(address,address,uint256,bytes)":"150b7a02","proposalDeadline(uint256)":"c01f9e37","proposalEta(uint256)":"ab58fb8e","proposalNeedsQueuing(uint256)":"a9a95294","proposalProposer(uint256)":"143489d0","proposalSnapshot(uint256)":"2d63f693","proposalThreshold()":"b58131b0","proposalVotes(uint256)":"544ffc9c","propose(address[],uint256[],bytes[],string)":"7d5e81e2","queue(address[],uint256[],bytes[],bytes32)":"160cbed7","quorum(uint256)":"f8ce560a","quorumDenominator()":"97c3d334","quorumNumerator()":"a7713a70","quorumNumerator(uint256)":"60c4247f","relay(address,uint256,bytes)":"c28bc2fa","setProposalThreshold(uint256)":"ece40cc1","setVotingDelay(uint48)":"79051887","setVotingPeriod(uint32)":"e540d01d","state(uint256)":"3e4f49e6","supportsInterface(bytes4)":"01ffc9a7","timelock()":"d33219b4","token()":"fc0c546a","updateQuorumNumerator(uint256)":"06f3f9e6","updateTimelock(address)":"a890c910","version()":"54fd4d50","votingDelay()":"3932abb1","votingPeriod()":"02a251a3"},"id":0}